:0E008200AAF0AB83E582900000F0A3EBF0A3A0
:0E009000EAF0900000E0FAA3E0FBA3E0FC74AD
:0E009E000D2AFAE43BFB900064C002C003C0D0
:0E00AC000412072BAD82AE83D004D003D00225
:0E00BA007F008A828B838CF0ED120691A3EEFC
:0C00C800120691A3EF1206919000101296
:0E00D400072BAA82AB837C00900000EAF0A309
:0E00E200EBF0A3ECF08A828B838CF01208679F
:0E00F000FAA3120867FBA3120867FC8A828B32
:0400FE00838CF022DD
:0E010200AAF0AB83E582900003F0A3EBF0A31C
:0E011000EAF0900003E0FAA3E0FBA3E0FC8A13
:08011E00828B838CF002063E87
:0E012600AAF0AB83E582900006F0A3EBF0A3F5
:0E013400EAF0900006E0FAA3E0FBA3E0FC7402
:0D014200092AFAE43BFB8A828B838CF012C1
:0A014F000867FAA3120867FBA31269
:0E0159000867FCA3120867FDBA640DBB000A1C
:0A016700BC0007BD000475820022F1
:04017100758202226F
:0E017500AAF0AB83E582900009F0A3EBF0A3A3
:0E018300EAF0900009E0FAA3E0FBA3E0FC74B0
:0D019100092AFAE43BFB8A828B838CF01272
:0A019E000867FAA3120867FBA3121A
:0E01A8000867FCA3120867FDEA4B4C4D70047B
:0401B600758201222B
:0401BA007582032225
:0E01BE00AAF0AB83E58290000DF0A3EBF0A356
:0E01CC00EAF090000DE0FAA3E0FBA3E0FC8A4D
:0E01DA00828B838CF0120126AA82BA02028068
:0101E8000313
:0301E90002034BC3
:0E01EC0090000DE0FBA3E0FCA3E0FD74032BEC
:0701FA00F50EE43CF50F8D4A
:0502010010850E82854E
:060206000F838510F012C9
:06020C000867F508A312CB
:060212000867F509A312C4
:0B0218000867F50A8B828C838DF012C2
:060223000867F50BA312B1
:060229000867F50CA312AA
:07022F000867F50D7463255B
:070236000BF9E4350CFEAFEB
:07023D000DE508B5010CE519
:0A02440009B50607E50AB5070280B8
:01024E0003AC
:03024F000202D1D7
:07025200850E82850F8385F4
:0502590010F0E50B129E
:06025E000691A3E50C125D
:060264000691A3E50D1256
:08026A00069190000CE0FE85F6
:060272000B82850C838560
:090278000DF012069174092BF53A
:060281000BE43CF50C8DBE
:050287000D850B8285CE
:06028C000C83850DF01249
:0A0292000867F9A3120867FEA31223
:0E029C000867FFA3120867F809B900090EBE33
:0702AA0000050FBF00010871
:0702B100850B82850C83859B
:0902B8000DF0E9120691A3EE120B
:0A02C1000691A3EF120691A3E812C4
:0602CB0006917582042279
:0A02D10074012508FEE43509FFA8BA
:0502DB000A850E82857A
:0702E0000F838510F0EE1200
:0A02E7000691A3EF120691A3E8129E
:0E02F100069190000CE0F98E828F8388F01247
:0E02FF00069174092BFBE43CFC8B828C838DF2
:0C030D00F0120867FEA3120867FFA3129D
:0E0319000867F8A3120867F90EBE00090FBFAF
:07032700000508B800010900
:0D032E008B828C838DF0EE120691A3EF12EE
:0A033B000691A3E8120691A3E9124F
:06034500069175820422FE
:05034B00EA7002F582DA
:01035000228A
:0E035100AAF0AB83E582900010F0A3EBF0A3BE
:0E035F00EAF0900010E0FAA3E0FBA3E0FC8AB5
:0E036D00828B838CF0120175AA82BA03028083
:01037B00037E
:03037C000204EB8D
:0E037F00900010E0FBA3E0FCA3E0FD74062B51
:07038D00F517E43CF5188DA3
:050394001985178285A8
:0603990018838519F01223
:06039F000867F511A3122E
:0603A5000867F512A31227
:0B03AB000867F5138B828C838DF01225
:0603B6000867F514A31214
:0603BC000867F515A3120D
:0703C2000867F516746325BE
:0703C90014F9E43515FEAF45
:0703D00016E511B5010CE573
:0A03D70012B50607E513B507028012
:0103E1000318
:0303E20002046CA6
:0703E500851782851883854E
:0503EC0019F0E51412F8
:0603F1000691A3E51512C0
:0603F7000691A3E51612B9
:0603FD00069185148285C3
:0604030015838516F012BE
:070409000867FA85148285E3
:0704100015838516F0E412CC
:0A041700069174092BF514E43CF57E
:04042100158D16859A
:0604250014828515838599
:08042B0016F0120867FEA3128F
:0A0433000867FFA3120867F8A31280
:0E043D000867F91EBEFF091FBFFF0518B8FFB4
:02044B00011995
:07044D0085148285158385EB
:0904540016F0EE120691A3EF125E
:0A045D000691A3E8120691A3E9122C
:0504670006918A8222CB
:0A046C0074012511FEE43512FFA80B
:050476001385178285CB
:07047B0018838519F0EE1251
:0A0482000691A3EF120691A3E81201
:0E048C0006918E828F8388F0120867FA8E82A6
:0E049A008F8388F0E412069174092BFBE43C7A
:0D04A800FC8B828C838DF0120867FEA3127E
:0A04B5000867FFA3120867F8A312FE
:0E04BF000867F91EBEFF091FBFFF0518B8FF32
:0204CD00011913
:0D04CF008B828C838DF0EE120691A3EF124C
:0A04DC000691A3E8120691A3E912AD
:0504E60006918A82224C
:0604EB00BA010375820155
:0104F10022E8
:0400000002002632A2
:01000B0032C2
:0100130032BA
:01001B0032B2
:0300230002054192
:03007F000204F286
:0504F2001204F780FE7A
:0E04F700900018E4F0A3F0758920758DFA7559
:0E0505009850D28EC29875A89090001AE4F01B
:0E051300A3F0900080E4F0A3F0900082E4F0EA
:02052100A3F045
:0205230080FE58
:06052500E582900084F065
:0C052B003099FD900084E0F599C29922FF
:0505370010980280FB9A
:05053C00AA998A822249
:0E054100C0E0C082C083C002C003C004C0D0AE
:08054F0075D000109902801321
:0E055700900080E0FAA3E0FB90008074012A7F
:05056500F0E43BA3F0EF
:05056A00109802804B17
:0E056F00AA99900014EAF0900082E0FBA3E04D
:0E057D00FCC3EB9464EC648094804005E5A818
:03058B0075A80050
:0A058E00EB241CF582EC3400F58329
:0E059800EAF090008274012BF0E43CA3F09096
:0C05A6000080E0FAA3E0FBEA241CF582D0
:0805B200EB3400F583E0F5993C
:0E05BA00D0D0D004D003D002D083D082D0E0C5
:0105C8003200
:0E05C900AA83E582900087F0A3EAF0900087F5
:0C05D700E0FAA3E0FB4A70049000002250
:0E05E300EA24FCFAEB34FFFB90008FE0FCA34F
:0E05F100E0FD900089ECF0A3EDF0900085E4B1
:0305FF00F0A3F076
:0E060200900089E0FCA3E0FD4C6025EAB50401
:0706100006EBB50502801B9B
:0E061700900085ECF0A3EDF08C828D83E0FC6A
:0D062500A3E0FD900089ECF0A3EDF080D083
:0C063200900089E0FAA3E08A82F58322A0
:0E063E00AAF0AB83E58290008BF0A3EBF0A353
:0E064C00EAF090008BE0FAA3E0FBA3E0FC8A4A
:0E065A00828B831205C9AA82AB83EA4B60280B
:0E066800900085E0FCA3E0FD4C700B8A828BB5
:0806760083A3A3E4F0A3F0222A
:0E067E008A828B83E0FAA3E0FB8C828D83EAF4
:04068C00F0A3EBF0FC
:010690002247
:06005500E478FFF6D8FD7F
:080033007900E94400601B7A2A
:05003B00009008877829
:030040009D75A00B
:0A00430000E493F2A308B8000205E0
:08004D00A0D9F4DAF275A0FF5E
:0E06910020F71030F6118883A88220F507F6B6
:05069F00A88375830033
:0106A4002233
:0306A500F280F7E9
:0206A800F0223E
:0E06AA00AA83E582900093F0A3EAF0900093FB
:0E06B800E0FAA3E0FB900095EAF0A3EBF0EA75
:0E06C6004B702090009574012AF0E43BA3F0E5
:0D06D400900091E0FAA3E0FB1ABAFF011BB1
:0806E100900091EAF0A3EBF098
:0E06E900900095E0FAA3E0FB90008FEAF0A3EA
:0E06F700EBF0900091E0FCA3E0FDEC2AFCED9E
:0E0705003BFDEC24FEFCED34FFFD8A828B836D
:0E071300ECF0A3EDF08C828D83E4F0A3F08A6D
:0A072100828B83A3A3E4F0A3F0226F
:0E072B00AA83E582900097F0A3EAF090009771
:0E073900E0FAA3E0FBC374FB9A74FF9B50042C
:0407470090000022FC
:0E074B0090009774042AF0E43BA3F090008F16
:0E075900E0FAA3E0FB900099EAF0A3EBF09029
:080767000097E0F51AA3E0F58C
:01076F001B6E
:0E077000900099E0FCA3E0FD8C828D83E0FEFA
:0E077E00A3E0FF8E008F018C028D03E8C39A6A
:0E078C00F8E99BF98C828D83A3A3E0FAA3E029
:0C079A00FBE8C39AF8E99BF9C3E8951A44
:0C07A600E9951B400D90009B74042CF0A2
:0607B200E43DA3F08023EA
:0E07B800900099EEF0A3EFF0900099E0FAA304
:0E07C600E0FB8A828B83E0FAA3E0FB4A709C82
:0707D40090009BE4F0A3F08C
:0E07DB0090009BE0FAA3E0FB4A700302085B6B
:0E07E900900099E0FAA3E0FB74022AFCE43BC6
:0E07F700FD8C828D83E0FEA3E0FF4E70139018
:0E0805000097E0F8A3E0F98C828D83E8F0A361
:04081300E9F0804444
:0E081700EE2AFEEF3BFF8A828B83E0FCA3E01B
:0E082500FD8E828F83ECF0A3EDF08A828B8330
:0D083300EEF0A3EFF074022EFAE43FFB900C
:0E0840000097E0FCA3E0FD8A828B83ECF0A31E
:0D084E00EDF090009B74042EF0E43FA3F049
:0C085B0090009BE0FAA3E08A82F5832263
:08005B007800E84400600A7916
:030063000075A085
:0600660000E4F309D8FCE0
:08006C00789DE84400600C7966
:0B00740001900000E4F0A3D8FCD9FAD2
:0300260075811BC6
:0A002900120883E58260030204F26E
:0E08670020F71430F6148883A88220F507E6E7
:06087500A8837583002238
:03087B00E280F721
:03087E00E49322DE
:02088100E02273
:040883007582002258
:00000001FF
