:06000000020006020226C8
:03005F000200623A
:0500620012036780FE9F
:07006700438E0C9000002203
:06006E00E582900001F0A4
:0C0074003099FD900001E0F599C299223E
:0500800010980280FB56
:05008500AA998A822205
:0E008A00758920758DFA759850D28ED2992204
:0E009800AA83E582900002F0A3EAF053D97922
:0D00A60075D80075E90075F90075A8819006
:0E00B3000002E0FAA3E0FB8AEA8AFA43DA428E
:0300C100D2DE226A
:0900C40074A2C0E07404C0E01253
:0B00CD00037E1581158174D8C0E0741B
:0B00D80004C0E012037E158115817446
:0800E300F2C0E07404C0E01259
:0B00EB00037E15811581740DC0E074C8
:0B00F60005C0E012037E158115817427
:080101002FC0E07405C0E012FC
:0B010900037E158115817451C0E07465
:0B01140005C0E012037E158115817408
:08011F006DC0E07405C0E012A0
:0B012700037E15811581748DC0E0740B
:0B01320005C0E012037E1581158174EA
:08013D00ADC0E07405C0E01242
:0C014500037E15811581120080E5829078
:080151000000F074D2C0E0745C
:0B01590005C0E012037E1581158190A7
:0A0164000000E0FAF58212006E744C
:08016E00F6C0E07405C0E012C8
:0E017600037E15811581900000E0FABA481250
:0901840074F9C0E07405C0E0123A
:09018D00037E1581158102025E5A
:0A019600BA5012741DC0E07406C0D8
:0B01A000E012037E1581158102022A87
:0A01AB00BA4C12743AC0E07406C0AA
:0B01B500E012037E158115810202405C
:0A01C000BA52127451C0E07406C078
:0B01CA00E012037E1581158102025631
:0A01D500BA53127467C0E07406C04C
:0B01DF00E012037E1581158102025A18
:0A01EA00BA4912747EC0E07406C02A
:0B01F400E012037E15811581020268F5
:0A01FF00BA44127499C0E07406C0FF
:0B020900E012037E158115810202E95E
:0902140074B4C0E07406C0E012ED
:09021D00037E158115810200C465
:0402260075A8003285
:09022A0074F6C0E07406C0E01295
:0D023300037E1581158175A8814387022285
:09024000740AC0E07407C0E0126A
:0D024900037E1581158175A8814387012270
:0402560075D84022F5
:04025A0075D8002231
:0A025E0075EBFF75FBFF75DB4C220A
:0E026800900004E0FAA3E0FBBA0D2ABB0027C9
:0C027600900004E4F0A3F07417C0E074E2
:0B02820007C0E012037E15811581907B
:0E028D000004E0FCA3E0FD8C828D831200983B
:02029B00804B96
:0E029D00EA4B7011900004748AF0E4A3F09014
:0702AB00008A120098803662
:0E02B200BAFF14BB001190000474D5F0E4A351
:0902C000F09000D5120098801F97
:0E02C900EA24E7FAEB34FFFB900004EAF0A30E
:0E02D700EBF0900004E0FAA3E0FB8A828B8338
:0302E5001200986C
:0102E80022F3
:0E02E900900004E0FAA3E0FBBAD52CBB00297C
:0C02F70090000474FFF0E4A3F0744AC00F
:0C030300E07407C0E012037E1581158134
:0D030F00900004E0FCA3E0FD8C828D8312C1
:04031C00009880467F
:0E032000BAFF14BB0011900004748AF0E4A32D
:09032E00F090008A120098802F63
:0E033700EA4B7011900004740DF0E4A3F090F6
:07034500000D120098801A60
:0E034C0090000474192AF0E43BA3F090000422
:0C035A00E0FAA3E0FB8A828B831200987B
:010366002274
:0E03670012008A900004E0FAA3E0FB8A828B69
:040375008312009857
:050379001200C480FB2E
:0E04A2000D0A2A2A2A2A2A2A2A2A2A2A2A2A3D
:0E04B0002A2A2A2A2A2A2A2A4D454E552A2A65
:0E04BE002A2A2A2A2A2A2A2A2A2A2A2A2A2AE4
:0C04CC002A2A2A2A2A2A2A2A2A0D0A0093
:0E04D8000D0A275227202D2D2D2D2D2D2D2DD7
:0C04E6002D2052756E2050574D0D0A005D
:0E04F2000D0A275327202D2D2D2D2D2D2D2DBC
:0D0500002D2053746F702050574D0D0A00D0
:0E050D000D0A274827202D2D2D2D2D2D2D2DAB
:0E051B002D2048696768207370656564204D67
:060529006F64650D0A007D
:0E052F000D0A275027202D2D2D2D2D2D2D2D81
:0E053D002D20506F77657220646F776E206DF1
:06054B006F64650D0A005B
:0E0551000D0A274C27202D2D2D2D2D2D2D2D63
:0E055F002D2049646C65204D6F64650D0A0007
:0E056D000D0A274927202D2D2D2D2D2D2D2D4A
:0E057B002D20496E637265617365206D6F649B
:04058900650D0A00F2
:0E058D000D0A274427202D2D2D2D2D2D2D2D2F
:0E059B002D204465637265617365204D6F64A9
:0405A900650D0A00D2
:0E05AD000D0A456E74657220616E79206F66CE
:0E05BB00207468652061626F76652063686158
:0905C9007261637465720D0A0091
:0E05D20054686520636861726163746572200D
:0E05E000796F75206861766520656E746572AE
:0805EE0065642069733A2000E6
:0305F6000D0A00EB
:0E05F90048696768207370656564206F7574CB
:0E060700707574206D6F646520697320656ED8
:0806150061626C65640D0A00CE
:0E061D00506F77657220646F776E206D6F648A
:0E062B006520697320656E61626C65640D0A5E
:0106390000C0
:0E063A0049646C65206D6F64652069732065EE
:090648006E61626C65640D0A002C
:0E06510052756E206D6F646520697320656EB2
:08065F0061626C65640D0A0084
:0E06670053746F70206D6F6465206973206599
:090675006E61626C65640D0A00FF
:0E067E00496E637265617365206D6F6465205F
:0D068C00697320656E61626C65640D0A0083
:0E0699004465637265617365206D6F64652052
:0D06A700697320656E61626C65640D0A0068
:0E06B4004E6F6E65206F662074686520636867
:0E06C200617261637465727320796F752065D3
:0E06D0006E7465726564206D617463682074D9
:0E06DE00686520636F6D6D616E6420636861F6
:0A06EC00726163746572730D0A00F9
:0E06F6000D0A506F77657220646F776E206D6D
:060704006F64650D0A00A0
:0D070A000D49646C65206D6F64650D0A007B
:0E071700596F752068617665207265616368B0
:0E072500656420746865206D6178696D756D7E
:0E073300206C6576656C206F662064757479A5
:09074100206379636C650D0A0068
:0E074A00596F7520686176652072656163687D
:0E075800656420746865206D696E696D756D4D
:0E076600206C6576656C206F66206475747972
:09077400206379636C650D0A0035
:02077D008A00F0
:06003500E478FFF6D8FD9F
:080013007902E94400601B7A48
:05001B000190077D7853
:030020000475A0C4
:0A00230000E493F2A308B800020500
:08002D00A0D9F4DAF275A0FF7E
:05037E00C008858108A4
:0B038300E50824FDF886831886821828
:0E038E00E493A324DB600C2425600512046BAD
:02039C0080F0EF
:03039E00020483D3
:0903A100D2D5E493A3C083C0820D
:0303AA00B4731415
:0903AD0086F01886831886821878
:0B03B6001204866053A312046B80F554
:0A03C100B46307E61812046B8043D2
:0E03CB00B46417E630E74618E6F42401F6089D
:0C03D900E6F43400F6742D12046B80333F
:0A03E500B4782D868318868218E490
:0B03EF0012045CE58312045BE583123E
:0A03FA00045CE58212045BE5821248
:0A040400045C30D505743012046B5F
:07040E00D082D08302038EAF
:03041500B475F6C5
:06041800E6FA18E6F918EF
:0D041E007C107D27120446FF7CE87D031250
:0E042B000446C4F5837C647D001204464283BF
:0D043900E975F00A84C445F0F582EF80A952
:020446007B0039
:0E0448000BC3E99CF9EA9DFA50F61BE92CF96A
:05045600EA3DFAEB2273
:01045B00C4DC
:07045C00540F700320D51FAF
:08046300C2D52490D43440D42A
:0E046B00C083C082C0F0F582E8C0E012006ECF
:09047900D0E0F8D0F0D082D0836D
:010482002257
:03048300D008227C
:08003B007800E84400600A7936
:030043000075A0A5
:0600460000E4F309D8FC00
:08004C007804E84400600C791F
:0B00540001900000E4F0A3D8FCD9FAF2
:03000600758108F9
:0A000900120067E582600302006246
:0E04860020F71430F6148883A88220F507E6CC
:06049400A883758300221D
:03049A00E280F706
:03049D00E49322C3
:0204A000E02258
:00000001FF
