:0E008A00AAF0AB83E582900000F0A3EBF0A398
:0E009800EAF0900000E0FAA3E0FBA3E0FC74A5
:0E00A600032AFDE43BFE8C078D828E838FF0D3
:0A00B4001245C6FD600490210022F1
:0E00BE008A828B838CF01245C6FDC364809449
:0E00CC00B0403374B78DF063F08095F040289B
:0E00DA00ED3395E0FEED24D0FDEE34FF8D06F3
:0E00E8007D00900003EDF0A3EEF09000007498
:0C00F600012AF0E43BA3F0A3ECF080042E
:040102009021002226
:0E010600900000E0FAA3E0FBA3E0FC8A828BED
:0E011400838CF01245C6FDC3648094B0404851
:0E01220074B98DF063F08095F0403DED33959B
:0E013000E0FEED24D0FDEE34FFFEC454F0CD11
:0E013E00C4CD6DCD54F0CD6DFE900003E0FFFA
:0E014C00A3E0F8900003ED2FF0EE38A3F09042
:0E015A00000074012AF0E43BA3F0A3ECF002D5
:0201680002355E
:0E016A00900000E0FAA3E0FBA3E0FC8A828B89
:0E017800838CF01245C6FDC3648094E14048BC
:0E01860074E68DF063F08095F0403DED33950A
:0E019400E0FEED24A9FDEE34FFFEC454F0CDD4
:0E01A200C4CD6DCD54F0CD6DFE900003E0FF96
:0E01B000A3E0F8900003ED2FF0EE38A3F090DE
:0E01BE00000074012AF0E43BA3F0A3ECF00271
:0201CC000235FA
:0E01CE00900000E0FAA3E0FBA3E0FC8A828B25
:0E01DC00838CF01245C6FDC3648094C1404779
:0E01EA0074C68DF063F08095F0403CED3395C7
:0E01F800E0FEED24C9FDEE34FFFEC454F0CD50
:0E020600C4CD6DCD54F0CD6DFE900003E0FF31
:0E021400A3E0F8900003ED2FF0EE38A3F09079
:0E022200000074012AF0E43BA3F0A3ECF0808E
:0102300004C9
:0402310090210022F6
:0E023500900000E0FAA3E0FBA3E0FC8A828BBD
:0E024300838CF01245C6FAC3648094B0402D3F
:0E02510074B98AF063F08095F04022EA33958C
:0E025F00E0FBEA24D0FAEB34FFFB900003E052
:0E026D00FCA3E0FD900003EA2CF0EB3DA3F0B3
:03027B0002031269
:0E027E00900000E0FAA3E0FBA3E0FC8A828B74
:0E028C00838CF01245C6FAC3648094E1402CC6
:0E029A0074E68AF063F08095F04021EA339517
:0E02A800E0FBEA24A9FAEB34FFFB900003E030
:0E02B600FCA3E0FD900003EA2CF0EB3DA3F06A
:0202C400804C6C
:0E02C600900000E0FAA3E0FBA3E0FC8A828B2C
:0E02D400838CF01245C6FAC3648094C1402C9E
:0E02E20074C68AF063F08095F04021EA3395EF
:0E02F000E0FBEA24C9FAEB34FFFB900003E0C8
:0E02FE00FCA3E0FD900003EA2CF0EB3DA3F022
:02030C0080046B
:04030E009021002218
:0C031200900003E0FAA3E08A82F5832249
:0E031E00AAF0AB83E582900005F0A3EBF0A3FC
:0E032C00EAF0900005E0FAA3E0FBA3E0FC7409
:0E033A00022AFDE43BFE8C078D828E838FF03D
:0A0348001245C6FD60049001012279
:0E0352008A828B838CF01245C6FDC3648094B2
:0E036000B0403E74B98DF063F08095F04033EC
:0E036E00ED3395E0FEED24D0FDEE34FFFEC42D
:0D037C0054F0CDC4CD6DCD54F0CD6DFE908C
:0E0389000008EDF0A3EEF090000574012AF0DC
:0A039700E43BA3F0A3ECF0020457CE
:0E03A100900005E0FAA3E0FBA3E0FC8A828B4B
:0E03AF00838CF01245C6FDC3648094E1403D8E
:0E03BD0074E68DF063F08095F04032ED3395DC
:0E03CB00E0FEED24A9FDEE34FFFEC454F0CD9B
:0E03D900C4CD6DCD54F0CD6DFE900008EDF05A
:0E03E700A3EEF090000574012AF0E43BA3F0B1
:0503F500A3ECF0805DA7
:0E03FA00900005E0FAA3E0FBA3E0FC8A828BF2
:0E040800838CF01245C6FDC3648094C1403D54
:0E04160074C68DF063F08095F04032ED3395A2
:0E042400E0FEED24C9FDEE34FFFEC454F0CD21
:0E043200C4CD6DCD54F0CD6DFE900008EDF000
:0E044000A3EEF090000574012AF0E43BA3F057
:05044E00A3ECF08004A6
:0404530090010122F1
:0E045700900005E0FAA3E0FBA3E0FC8A828B94
:0E046500838CF01245C6FAC3648094B0402D1B
:0E04730074B98AF063F08095F04022EA339568
:0E048100E0FBEA24D0FAEB34FFFB900008E029
:0E048F00FCA3E0FD900008EA2CF0EB3DA3F08A
:03049D0002053421
:0E04A000900005E0FAA3E0FBA3E0FC8A828B4B
:0E04AE00838CF01245C6FAC3648094E1402CA2
:0E04BC0074E68AF063F08095F04021EA3395F3
:0E04CA00E0FBEA24A9FAEB34FFFB900008E007
:0E04D800FCA3E0FD900008EA2CF0EB3DA3F041
:0204E600804C48
:0E04E800900005E0FAA3E0FBA3E0FC8A828B03
:0E04F600838CF01245C6FAC3648094C1402C7A
:0E05040074C68AF063F08095F04021EA3395CA
:0E051200E0FBEA24C9FAEB34FFFB900008E09E
:0E052000FCA3E0FD900008EA2CF0EB3DA3F0F8
:02052E00800447
:040530009001012213
:0C053400900008E0FAA3E08A82F5832220
:0E054000AA83E58290000AF0A3EAF090000A78
:0E054E00E0FAA3E0FBC3EA940AEB6480948019
:0E055C00503890000C7430F08A048B057E300D
:04056A007F00780096
:0E056E00C3EF940AE864809480505CECB507FB
:0D057C000CEDB5000890000CE0F9F58222AE
:0D0589000E90000CEEF00FBF00DB0880D8D4
:0E059600C3EA9410EB64809480503490000C03
:0905A4007441F07C417D0A7E00E7
:0E05AD00C3ED9410EE64809480501DEAB505F5
:0D05BB000CEBB5060890000CE0FFF5822265
:0D05C8000C90000CECF00DBD00DB0E80D897
:0105D5002203
:0E05D600E58290000DF090000EE4F07A087BB4
:0105E4000016
:0C05E50090000EE025E0FC90000EF0906D
:0E05F100000DE0FC74015CFD90000EE0FE4D7C
:0E05FF00F0ECC313FC90000DF01ABAFF011BC4
:0B060D00EA4B70D490000EE0F5822252
:0E061800AAF0AB83E58290000FF0A3EBF0A3F5
:0E062600EAF0900012E4F0A3F090000FE0FA6A
:0A063400A3E0FBA3E0FC7D007E00C4
:0E063E00ED2AFFEE3BF88C018F82888389F055
:0D064C001245C6FF605EC002C003C00490EE
:0E0659000012E0F8A3E0F990019B740AF0E4AF
:0E066700A3F088828983C002C003C004C005CE
:0E067500C006C007123973A882A983D007D02F
:0E06830006D005D004D003D002EF3395E0FA84
:0E069100EF24D0FFEA34FFFA900012EF28F0B9
:09069F00EA39A3F00DBD00010EC3
:0806A800D004D003D002808EC3
:0C06B000900012E0FAA3E08A82F5832299
:0E06BC00438901758C4E758A0075B80243A8FB
:0506CA008343881122AA
:0A06CF00900014E4F0900015F09084
:0B06D9000016F075A883D2AFD28C226F
:0506E400D310AF01C3BB
:0E06E900C0D0900042740CF07582041215FF10
:0E06F70075823A121594900042740FF07582CD
:0B070500041215FF75822E121594904F
:0C0710000014E0FA90001474012AF0902C
:0D071C000014E0FABA0A11900014E4F09005
:0B0729000015E0FA90001574012AF0A2
:0E073400900014E0FA3395E0FB8A828B83126A
:0A0742000540AA82900017EAF0902B
:0C074C0000427410F07582041215FF903A
:0A0758000017E0FAF58212159490E4
:0D0762000015E0FABA3C11900015E4F0908B
:0B076F000016E0FA90001674012AF05A
:0E077A00900015E0FAC2D575F00AEA30E704E7
:04078800B2D5F404EE
:06078C008430D502F404E4
:0E079200FAA2D595E0FB90001BEAF0A3EBF075
:0E07A0008A828B83120540AA82900017EAF02D
:0E07AE00900015E0FA3395E0FB90001BE0FC94
:0E07BC00A3E0FD90019B740AF0E4A3F08C8290
:0E07CA008D83C002C003123973AC82AD83D0A0
:0E07D80003D00290001BEAC39CF0EB9DA3F03F
:0D07E60090001BE0FAA3E0FB8A828B8312D7
:0A07F3000540AA82900018EAF09079
:0E07FD000019E4F0900042740DF075820412B1
:0A080B0015FF900017E0FAF58212C5
:0C0815001594900042740EF075820412DD
:0A08210015FF900018E0FAF58212AE
:0B082B001594900016E0FABA3C05900E
:040836000016E4F0D4
:0E083A00900016E0FAC2D575F00AEA30E70425
:04084800B2D5F4042D
:06084C008430D502F40423
:0E085200FAA2D595E0FB90001BEAF0A3EBF0B4
:0E0860008A828B83120540AA82900017EAF06C
:0E086E00900016E0FA3395E0FB90001BE0FCD2
:0E087C00A3E0FD90019B740AF0E4A3F08C82CF
:0E088A008D83C002C003123973AC82AD83D0DF
:0E08980003D00290001BEAC39CF0EB9DA3F07E
:0D08A60090001BE0FAA3E0FB8A828B831216
:0A08B3000540AA82900018EAF090B8
:0E08BD000019E4F0900042740AF075820412F3
:0A08CB0015FF900017E0FAF5821205
:0C08D5001594900042740BF07582041220
:0A08E10015FF900018E0FAF58212EE
:0708EB001594D0D092AF225A
:0508F200D310AF01C3AB
:0C08F700C0D075828012178074FBC0E036
:0C090300744AC0E012386B158115817A2F
:05090F00007B007C00EC
:0E091400C3EB9440EC6480948040030209A47D
:0E0922009001A57410F0E4A3F08B828C83C0CA
:0E09300002C003C004123AA5E5828583F0D010
:0E093E0004D003D00245F070330AC002C0039B
:0A094C00C0047416C0E0744BC0E054
:0E09560012386B15811581D004D003D00290A9
:0E09640000427401F08A82C002C003C0041277
:0809720015FFD004D003D002F0
:0E097A00C002C003C0041217A1AD82D004D089
:0E09880003D0028D82C002C003C00412352EBF
:0B099600D004D003D0020BBB00010C0A
:0309A10002091434
:0D09A4009000427401F07582011215FF747D
:0809B1001BC0E0744BC0E01212
:0C09B900386B158115817A007B007C00F2
:0E09C500C3EB9440EC648094804003020B125C
:0E09D3009001A57410F0E4A3F08B828C83C019
:0E09E10002C003C004123AA5E5828583F0D05F
:0C09EF0004D003D00245F06003020AD3DC
:0C09FB000AC002C003C0047416C0E074FF
:0C0A07004BC0E012386B15811581D00443
:0E0A1300D003D0029000427401F08A82C0022B
:0E0A2100C003C0041215FFD004D003D002EBB6
:0E0A2F004C7025C002C003C004E4C0E0C0E06B
:090A3D007434C0E0744BC0E012F7
:0E0A4600386BE58124FCF581D004D003D0028A
:030A5400020AD3C0
:0E0A5700BB1029BC0026C002C003C0047440BE
:0A0A6500C0E0E4C0E07434C0E074A7
:0C0A6F004BC0E012386BE58124FCF581DF
:080A7B00D004D003D00280502A
:0E0A8300BB2029BC0026C002C003C0047410B2
:0A0A9100C0E0E4C0E07434C0E0747B
:0C0A9B004BC0E012386BE58124FCF581B3
:080AA700D004D003D00280242A
:0E0AAF00C002C003C0047450C0E0E4C0E07494
:080ABD0034C0E0744BC0E012EC
:0E0AC500386BE58124FCF581D004D003D0020B
:0E0AD300C002C003C0041217A1AD82D004D02F
:0E0AE10003D002ED3395E0FEC002C003C00456
:0A0AEF00C005C006743CC0E0744B63
:0E0AF900C0E012386BE58124FCF581D004D0FA
:080B070003D0020BBB00010C3E
:030B0F000209C513
:050B1200D0D092AF22DB
:050B1700D310AF01C383
:0E0B1C00C0D075820A12352E758240121780E5
:040B2A007A007B00D2
:0E0B2E00C3EA9440EB648094804003020BC045
:0E0B3C009001A57408F0E4A3F08A828B83C0B8
:0E0B4A0002C003123AA5E5828583F0D003D0E5
:0E0B58000245F0701DC002C003C002C003744D
:080B660034C0E0744BC0E01242
:0C0B6E00386BE58124FCF581D003D00237
:0E0B7A00C002C0031217A1AC82D003D00275D6
:0E0B88008209C002C003C00412352ED004D072
:0E0B960003D0027D00C002C003C004C005747D
:080BA40041C0E0744BC0E012F7
:0E0BAC00386BE58124FCF581D003D0020ABA33
:030BBA0000010B2C
:030BBD00020B2EFA
:050BC000D0D092AF222D
:0E4AFB000A0D090941736369692052657072E2
:0D4B09006573656E746174696F6E0A0D004E
:054B16000A0D09090071
:0E4B1B000A0D090948657820526570726573AD
:0B4B2900656E746174696F6E0A0D0008
:084B34000A0A0D307825780013
:054B3C000920257800AE
:034B4100257800D4
:0E0BC500AA83E58290001DF0A3EAF090001DC7
:050BD300E0FAA3E0FBC5
:080BD800BA0005BB0002800F0A
:050BE0001ABAFF011B21
:0A0BE50090001DEAF0A3EBF080E998
:090BEF0090001DEAF0A3EBF022D6
:0E0BF800AA83E58290001FF0A3EAF090001F90
:050C0600E0FAA3E0FB91
:080C0B00BA0005BB0002801DC8
:0E0C1300900070C002C003120BC5D003D002C7
:050C21001ABAFF011BDF
:0A0C260090001FEAF0A3EBF080DB62
:090C300090001FEAF0A3EBF02292
:0B0C3900E582900021F0900021E0FA1D
:050C4400BA000280125D
:0E0C49009003E8C002120BF8D0021A900021AE
:040C5700EAF080E956
:060C5B00900021EAF022E6
:0E0C6100AA83E582900025F0A3EAF09000251A
:0E0C6F00E0FAA3E0FBA2E7CA33CA33CA54017D
:0E0C7D00FB53020E7B00900023EAF0120FDD05
:0E0C8B00900023E0FA4302A08A82121006AA0B
:0B0C990082900022EAF0E4BA0001049F
:010CA400FA55
:0E0CA500EA60FD900025E0FAA3E0FB8A8212CF
:0E0CB3001006AA82900022EAF0E4BA000104C2
:010CC100FA38
:0E0CC200EA60FD900024E0FAF582121006AA06
:0B0CD00082900022EAF0E4BA00010468
:010CDB00FA1E
:060CDC00EA60FD020FF2C8
:0E0CE200AA83E582900027F0A3EAF090002795
:0E0CF000E0FAA3E0FBA2E7CA33CA33CA5401FC
:0E0CFE00FB53020E7B00900023EAF0120FDD84
:0E0D0C00900023E0FA4302A08A82121006AA89
:0B0D1A0082900022EAF0E4BA0001041D
:010D2500FAD3
:0E0D2600EA60FD900027E0FAA3E0FB8A82124B
:0E0D34001006AA82900022EAF0E4BA00010440
:010D4200FAB6
:0E0D4300EA60FD120FDD900023E0FA4302A1EA
:0E0D51008A82121006AA82900022EAF0E4BA0A
:030D5F000001048C
:010D6200FA96
:0E0D6300EA60FD121067AA82C002120FF2D0E1
:0E0D71000290000AC002120BC5D0028A822234
:050D7F00120FDD7A00F7
:030D8400BA0900A9
:0E0D8700501DD296D295900001C002120BF8BA
:0E0D9500D002C295900001C002120BF8D002ED
:030DA3000A80DEE5
:0A0DA600120FDD120FF2900005029B
:020DB0000BF83E
:0E0DB200AA83E58290002EF0A3EAF090002EB6
:0E0DC000E0FAA3E0FBA2E7CA33CA33CA54012B
:0E0DCE00FB53020E7B00900023EAF0120FDDB3
:0E0DDC00900023E0FA4302A08A82121006AAB9
:0B0DEA0082900022EAF0E4BA0001044D
:010DF500FA03
:0E0DF600EA60FD90002EE0FAA3E0FB8A821274
:0E0E04001006AA82900022EAF0E4BA0001046F
:010E1200FAE5
:0E0E1300EA60FD120FDD900023E0FA4302A119
:0E0E21008A82121006AA82900022EAF0E4BA39
:030E2F00000104BB
:010E3200FAC5
:0E0E3300EA60FD90002EE0FAA3E0FB90002B99
:0E0E4100E0FCA3E0FDA3E0FE900029E0FFA38B
:0A0E4F00E0F8750801E4F509E4F588
:030E59000AF50B8C
:0A0E5C00C3E50A9FE50B648088F0EF
:0A0E660063F08095F04003020FC90D
:0A0E7000C002C003E50A2CF50CE5F2
:050E7A000B3DF50D8E9B
:050E7F000E900032E5B9
:0A0E840008F0A3E509F08F828883CF
:0D0E8E00C003C004C005C006C007C00012AC
:0E0E9B0010CFAA82D000D007D006D005D00418
:090EA900D003850C82850D8385C0
:070EB2000EF0EA1238529025
:0C0EB90001A57410F0E4A3F0850A828506
:0C0EC5000B83C002C003C004C005C006BF
:0E0ED100C007C000123AA5E5828583F0D0006C
:0E0EDF00D007D006D005D004D003D002D00337
:0E0EED00D00245F07070C007C000C002C00304
:0C0EFB00C004C005C006C007C00074445D
:0C0F0700C0E0744BC0E012386B1581157F
:0E0F130081D000D007D006D005D004D003D086
:0A0F210002E50A2AF9E50B3BFFC0C8
:0E0F2B0002C003C004C005C006C007C000C05D
:0A0F390001C0077447C0E0744BC00C
:0E0F4300E07480C0E0123D0DE58124FBF581D5
:0E0F5100D000D007D006D005D004D003D002C7
:040F5F00D000D007E7
:0A0F6300C002C003E50A2CF9E50BFB
:0E0F6D003DFA8E0389828A838BF01245C6F905
:0E0F7B007A00C002C003C004C005C006C00753
:0B0F8900C000C001C002744DC0E07445
:0C0F94004BC0E07480C0E0123D0DE58110
:0E0FA00024FBF581D000D007D006D005D00488
:0A0FAE00D003D0020508E4B50802E4
:020FB800050929
:070FBA00050AE4B50A020577
:010FC1000B24
:070FC200D003D002020E5C17
:030FC900020FF222
:034B44000D0A0057
:064B4700253033583A004E
:064B4D002530325809007A
:0E0FCC00900001120BC5D295900001120BC5CA
:030FDA00C295229B
:0D0FDD00D296D295900001120BF8C29690AA
:080FEA000001120BF8C2952270
:0E0FF200C295C296D295900001120BF8D296CD
:06100000900001020BF854
:0A100600E582900030F0C2957A00F8
:03101000BA08001B
:0E1013005034900030E0FB20E704C2968002CB
:02102100D29665
:0E102300D295900001C002120BF8D002C295C7
:0E103100900030E025E0FB900030F0900001D0
:0A103F00C002120BF8D0020A80C7AD
:0E104900900001120BF8D296D295E4A29633D5
:0E105700FA900001C002120BC5D002C2958AA9
:021065008222E5
:09106700900031E4F0D2957A000A
:03107000BA0800BB
:0E1073005047D295900001C002120BF8D00237
:0E10810030960F900031E0FBE4A29633FC9015
:04108F0000314BF0F1
:03109300BA070099
:0D109600500B900031E025E0FB900031F0A0
:0D10A300900001C002120BF8D002C295901F
:0C10B0000001C002120BF8D0020A80B44C
:0D10BC00D296D295900001120BF8C29590CB
:0610C9000031E0F5822277
:0E10CF00AA83E582900034F0A3EAF090003688
:0610DD00E4F0D2957A0058
:0310E300BA080048
:0E10E6005047D295900001C002120BF8D002C4
:0E10F40030960F900036E0FBE4A29633FC909D
:0411020000364BF078
:03110600BA070025
:0D110900500B900036E025E0FB900036F022
:0D111600900001C002120BF8D002C29590AB
:0C1123000001C002120BF8D0020A80B4D8
:0E112F00900032E0FAA3E0FB900034E0FCA355
:0E113D00E0FDC3EA9CEB64808DF063F08095CA
:0E114B00F0501AC296900001120BC5D295907A
:0E1159000001120BF8C295900001120BC58028
:01116700186F
:0E116800D296900001120BC5D2959000011294
:0A1176000BF8C295900001120BC5A2
:09118000D296900036E0F58222BF
:0E118900E58290003BF090003BE0FA4302014B
:0D119700C002120FDDD002758240C00212AE
:0E11A4001006AB82D00290003AEBF0E4BB00E4
:0211B200010436
:0111B400FB3F
:0E11B500EB60FD8A82121006AA8290003AEAD0
:0611C300F0E4BA00010493
:0111C900FA2B
:0C11CA00EA60FD120FF2900005020BF825
:0C11D600120FDD758241121006AA8290F3
:0911E200003AEAF0E4BA0001044D
:0111EB00FA09
:0E11EC00EA60FD121067AA82C002120FF2D054
:0E11FA000290000AC002120BC5D0028A8222A7
:091208007453C0E0744BC0E01205
:06121100386B1581158108
:0E1217001234C7AA82AB83ACF0C002C003C081
:0A122500047478C0E0744BC0E012BE
:0E122F00386B15811581D004D003D0028A825D
:0E123D008B838CF0C002C003C00412354AD06F
:0C124B0004D003D002C002C003C0047431
:0812570096C0E0744BC0E012E8
:0E125F00386B15811581D004D003D0028A822D
:0E126D008B838CF0120618AA82AB838A048B46
:0E127B0005C374039CE49D400D8A048B05C3DB
:08128900EC9401ED94005017F4
:0A129100C002C0037499C0E0744B62
:0D129B00C0E012386B15811581D003D00220
:0D12A8008A048B05C374039CE49D5003026F
:0212B50012170E
:0E12B7008A048B05C3EC9401ED9400500302F1
:0212C5001217FE
:0A12C700C002C00374D0C0E0744BF5
:0D12D100C0E012386B15811581D003D002EA
:0E12DE00C002C0031234C7AC82AD83AEF0D0A4
:0E12EC0003D002C002C003C004C005C00674D7
:0812FA0003C0E0744CC0E012D7
:0E130200386B15811581D006D005D004D003BC
:0E131000D0028C828D838EF0C002C003C00418
:0E131E00C005C00612354AD006D005D004D056
:0E132C0003D002C002C003C004C005C0067496
:08133A0096C0E0744BC0E01204
:0E134200386B15811581D006D005D004D0037C
:0D135000D0028C828D838EF0C002C003128B
:0E135D000618AC82AD83D003D0028C068D073B
:0E136B00C374019EE49F501FC002C003C00463
:0A137900C0057427C0E0744CC0E00A
:0E13830012386B15811581D005D004D003D02F
:011391000259
:0D1392008C068D07C374019EE49F5003027A
:02139F0012DE5C
:0D13A100C002C003C004C0051211D6858231
:0C13AE000FD005D004D003D002EC4D603D
:0413BA000302145BBB
:0D13BE008A078B008F828883C002C0031253
:0E13CB003C5BAF82A883A9F0FED003D0029055
:0E13D900019DEFF0A3E8F0A3E9F0A3EEF09081
:0E13E7000000E4F5F07440C002C00312399318
:0E13F500AE82AF83A8F0F9D003D002C002C0D0
:0E14030003C006C007C000C00190000075F0D5
:0E1411007F744312359EAE82AF83A8F0F9E5DA
:0E141F008124FCF581D003D0028E828F838859
:0E142D00F0E9C002C003123C67AE82AF83D06C
:0C143B0003D002A80F7900E85206E95225
:0C1447000790003CEEF0EA24DBF582EB9D
:081453003400F583E4F0802F62
:0A145B00EA24DBF582EB3400F58390
:0D1465007401F08AF005F0AA04AB058006C2
:06147200EA2AFAEB33FB4D
:0C147800D5F0F7AE0F7C00EE4202EC4213
:061484000390003CEAF0B9
:0E148A0090003CE0FAF58212118990000502F4
:021498000BC582
:05149A00D310AF01C3F7
:0E149F00C0D0AA83E58290003DF0A3EAF09051
:0E14AD00003DE0FAA3E0FB8A828B83C002C000
:0E14BB0003120540AC82D003D002C002C00371
:0A14C900C004745EC0E0744CC0E083
:0E14D30012386B15811581D004D003D0028C25
:0E14E10082C002C00312352ED003D002C0021A
:0A14EF00C0037496C0E0744BC0E027
:0E14F90012386B15811581D003D002EBC4545C
:0E150700F0CAC4CA6ACA54F0CA6AFB90003D1A
:0E151500EAF0A3EBF090003DE0FAA3E0FB90BB
:0E152300003D740F4AF0A3EBF090003DE0FA9B
:0D153100A3E0FB8A82121189D0D092AF2274
:0E4B53000A0A0D092053656C656374207069B1
:0E4B61006E206E756D6265722066726F6D203B
:094B6F003120746F20333A20005C
:0E4B78005468652070696E20796F7520686141
:0E4B860076652073656C6563746564206973E1
:024B94003A00E5
:034B96000D0A0005
:0E4B99000A0A0D202A2D4552524F522D2A0A8B
:0E4BA7000D0920456E74657220612076616CE8
:0E4BB5006964206E756D6265722062657477AA
:0D4BC30065656E203120746F20333A2000AC
:0E4BD0000A0A0D092053656C65637420446960
:0E4BDE0072656374696F6E206F662070696E79
:0E4BEC003A2020302E4F7574707574202031E1
:094BFA002E20496E70757409004B
:0E4C030054686520646972656374696F6E2081
:0E4C1100796F7520686176652073656C656348
:084C1F007465642069733A001A
:0E4C27000A0A0D202A2D4552524F522D2A0AFC
:0E4C35000D0920456E74657220612076616C59
:0E4C43006964206E756D62657220626574771B
:0D4C510065656E2030206F7220313A200022
:0E4C5E0054686520636F756E742069733A2088
:014C6C000047
:0E153E00C293C294900014120BF890F00B743C
:0E154C0030F0900006120BF890F00B7430F0A7
:0D155A00900005120BF890F00B7430F012A9
:0E15670015D090F00B7438F01215D090F00BE8
:0D1575007408F01215D090F00B740FF012F6
:0E15820015D090F00B7406F01215D090F00BFF
:041590007401F022D0
:0E159400E58290003FF0D293C2947A0B7BF078
:0D15A20090003FE0FC8A828B83F00215D0A0
:0E15AF00E582900040F0C293C29490000112B9
:0E15BD000BF87A0B7BF0900040E0FC8A828BEA
:0515CB0083F00215D0C1
:0E15D000C293D29490F00CE0FA900041F0909B
:0515DE000001120BF8F2
:0E15E300900041E0FA30E70B90F00CE0FA9037
:0515F1000041F080ED57
:0915F600C294900041E0F582224C
:0E15FF00E582900043F0900043E0FABA011339
:08160D00900042E0FABA11005E
:0B1615005009747F2AFAF5820215AF1D
:0E162000900043E0FABA0213900042E0FABADA
:02162E001100A9
:0B163000500974BF2AFAF5820215AFC2
:0E163B00900043E0FABA0313900042E0FABABE
:0216490011008E
:0B164B005009748F2AFAF5820215AFD7
:0E165600900043E0FABA0413900042E0FABAA2
:02166400110073
:0B166600500974CF2AFAF5820215AF7C
:09167100904C6D75F08002167AB0
:05167A00D310AF01C315
:0E167F00C0D0AAF0AB83E582900044F0A3EB4C
:0E168D00F0A3EAF09000B4E0FAF5821215AF77
:0E169B00900044E0FAA3E0FBA3E0FC7D007E9B
:0116A9000040
:0E16AA00ED2AFFEE3BF88C018F82888389F0D9
:0A16B8001245C6FFBF0003021772BF
:0D16C2008F82C002C003C004C005C0061224
:0E16CF001594D006D005D004D003D0020DBD76
:0316DD0000010EFB
:0E16E000C002C003C004C005C0061215D0AF82
:0E16EE0082D006D005D004D003D002BF102455
:0E16FC009000427401F0758202C002C003C06B
:0E170A0004C005C006C0071215FFD007D006A8
:08171800D005D004D003D0027B
:0E172000BF50249000427401F0758203C00295
:0E172E00C003C004C005C006C0071215FFD0DE
:0B173C0007D006D005D004D003D00277
:05174700BF4002800319
:03174C000216AAD8
:0E174F009000427401F0758204C002C003C015
:0E175D0004C005C0061215FFD006D005D0044A
:07176B00D003D0020216AA10
:0E1772001218BDE5829000B4F0D0D092AF22E4
:0E178000E582900047F0C293C29490000112DF
:0E178E000BF87A0B7BF0900047E0FC8A828B10
:05179C0083F00215D0EE
:0E17A100D293D294900001120BF890F00CE05D
:0B17AF00FAC0021215D0D0028A82227C
:0617BA0075820102178098
:0517C000D310AF01C3CE
:0E17C500C0D0E58290004AF0900048E0FA9013
:0B17D3000049E0FB900042F08A821207
:0A17DE0015FF90004AE0FAF58212B0
:0717E8001594D0D092AF224E
:0517EF00D310AF01C39F
:0E17F400C0D0E58290004EF090004EE0FAC4A6
:0E1802000354F8FA90004EF090004EE0FA43C6
:0E18100002408A8212178090004BE0FAA3E09B
:06181E00FBA3E0FC7D00CD
:0E182400C3ED64809488502AED2AFEE43BFF59
:0E1832008C008E828F8388F01245C6FEF582F0
:0E184000C002C003C004C005121594D005D02C
:08184E0004D003D0020D80CE8E
:05185600D0D092AF228A
:05185B00D310AF01C332
:0E186000C0D090004F741EF09000507410F035
:0D186E009000517419F09000527419F09020
:0C187B000053741FF09000547409F090AA
:0C18870000557409F0900056741FF0909A
:07189300004B744FF0A37439
:0C189A0000F0A37400F07582041217EF38
:0E18A6009000487403F09000497403F07582BE
:0918B400041217C0D0D092AF223B
:0518BD00D310AF01C3D0
:0E18C200C0D0C293D29490F00CE0FA747F5A1A
:0A18D0004480FAF582D0D092AF22D6
:0D18DA009000427401F07582011215FF901C
:0E18E7000042740FF07582041215FF75822EF8
:0A18F500121594900001120BF890F8
:0E18FF000042740CF07582041215FF75823AD7
:0A190D00121594900001120BF890DF
:0B19170000427401F07582010215FF10
:064C6D004572726F720037
:0600000002002E022C7428
:03000B00022C0BB9
:0100130032BA
:01001B0032B2
:0100230032AA
:03002B00022CE3C1
:0300870002192239
:0519220012192E80FEE9
:07192700438E0C900000222A
:0E192E00900096E4F0A3F0900214E4F0A3F011
:0E193C00900098E4F0A3F09000E4E4F0A3F033
:0E194A009000E6E4F0A3F09000B47480F090FA
:0919580000B57401F01234B974F9
:0819610073C0E0744CC0E012F9
:0A196900386B158115811206BC12BF
:061973000D7F12153E126B
:0619790018DA1206CF90FF
:0A197F0000B5E0FAF582122A9190FB
:0919890000B5E0FAF582121189A3
:09199200749EC0E0744CC0E01228
:0B199B00386B1581158174A1C0E07449
:0B19A6004CC0E012386B1581158174F5
:0819B100BCC0E0744CC0E01260
:0B19B900386B1581158174E9C0E074E3
:0B19C4004CC0E012386B1581158174D7
:0819CF0016C0E0744DC0E012E7
:0B19D700386B158115817444C0E0746A
:0B19E2004DC0E012386B15811581121A
:0919ED003540E5829000A8F07479
:0819F60078C0E0744DC0E0125E
:0E19FE00386B158115819000A8E0FAF5821271
:071A0C00352E749EC0E0744A
:0B1A13004CC0E012386B15811581906B
:091A1E0000A8E0FABA4C028003B2
:031A2700021C425C
:071A2A0090008AE4F0A3F034
:091A31007494C0E0744DC0E01291
:0B1A3A00386B1581158174B7C0E07493
:0B1A45004DC0E012386B158115817454
:081A5000E9C0E0744DC0E01292
:0B1A5800386B15811581741BC0E07411
:0B1A63004EC0E012386B158115817435
:081A6E0052C0E0744EC0E0120A
:0B1A7600386B158115817484C0E0748A
:0B1A81004EC0E012386B158115817417
:081A8C00C3C0E0744EC0E0127B
:0B1A9400386B158115817403C0E074ED
:0B1A9F004FC0E012386B1581158174F8
:081AAA003FC0E0744FC0E012E0
:0B1AB200386B158115817475C0E0745D
:0B1ABD004FC0E012386B15811581123C
:091AC8003540E5829000AAF0749B
:081AD10078C0E0744DC0E01282
:0E1AD900386B158115819000AAE0FBF5821292
:071AE700352E749EC0E0746F
:0B1AEE004CC0E012386B158115819090
:0C1AF90000AAE0FBBB431C74A7C0E07413
:0B1B05004FC0E012386B1581158112F3
:0A1B10000B1790008EE4F0A3F00222
:021B1A001C2E7F
:0A1B1C00BB441C74D9C0E0744FC034
:0C1B2600E012386B158115811208F29056
:091B3200008EE4F0A3F0021C2E69
:0A1B3B00BB5022740BC0E07450C0D0
:0E1B4500E012386B1581158190503575F080D7
:0B1B530012167A90008EE4F0A3F0025E
:021B5E001C2E3B
:0A1B6000BB4D19743DC0E07450C085
:0E1B6A00E012386B1581158190008EE4F0A317
:041B7800F0021C2E2D
:0A1B7C00BB4C1C7462C0E07450C042
:0C1B8600E012386B158115811217BA901F
:091B9200008EE4F0A3F0021C2E09
:0A1B9B00BB481B7493C0E07450C0F7
:0C1BA500E012386B15811581122A1A908D
:081BB100008EE4F0A3F0807542
:0A1BB900BB521B74C4C0E07450C09E
:0C1BC300E012386B158115811227A790E5
:081BCF00008EE4F0A3F0805742
:0A1BD700BB461B74FEC0E07450C052
:0C1BE100E012386B1581158112185B9022
:081BED00008EE4F0A3F0803942
:0A1BF500BB531E7430C0E07451C0F1
:0C1BFF00E012386B158115811234AC1215
:0B1C0B002D1E90008EE4F0A3F0801866
:091C1600745BC0E07451C0E012DF
:0E1C1F00386B1581158190008E7401F0E4A3DE
:011C2D00F0C6
:0E1C2E0090008EE0FBA3E0FCBB0106BC0003AF
:031C3C00021A3158
:031C3F00021992F5
:051C4200BA4502800319
:031C4700021D6F0C
:071C4A0090008AE4F0A3F012
:091C5100747AC0E07451C0E01285
:0B1C5A00386B15811581749CC0E0748C
:0B1C650051C0E012386B15811581742E
:081C7000CEC0E07451C0E01287
:0B1C7800386B158115817400C0E0740A
:0B1C830052C0E012386B15811581740F
:081C8E0032C0E07452C0E01204
:0C1C9600386B15811581123540E58290F5
:081CA20000A9F07478C0E074A1
:0B1CAA004DC0E012386B1581158190D1
:0A1CB50000A9E0FBF58212352E7441
:081CBF009EC0E0744CC0E0126D
:0A1CC700386B15811581120D7F9016
:0C1CD10000A9E0FBBB571B7462C0E0746C
:0B1CDD0052C0E012386B158115811217
:0B1CE800232690008CE4F0A3F080683D
:0A1CF300BB521B7493C0E07452C092
:0C1CFD00E012386B158115811224D29082
:081D0900008CE4F0A3F0804A15
:0A1D1100BB481B74C3C0E07452C04D
:0C1D1B00E012386B158115811225C49070
:081D2700008CE4F0A3F0802C15
:0A1D2F00BB4D1174F6C0E07452C001
:0A1D3900E012386B15811581801847
:091D4300745BC0E07451C0E012B1
:0E1D4C00386B1581158190008C7401F0E4A3B2
:011D5A00F098
:0E1D5B0090008CE0FBA3E0FCBB0106BC000383
:031D6900021C5108
:031D6C00021992C7
:051D6F00BA43028003ED
:031D7400021EA8A4
:071D770090008AE4F0A3F0E4
:091D7E00741AC0E07453C0E012B5
:0B1D8700386B15811581743BC0E074BF
:0B1D920053C0E012386B1581158174FE
:081D9D006EC0E07453C0E012B7
:0B1DA500386B1581158174A1C0E0743B
:0B1DB00053C0E012386B1581158174E0
:081DBB0032C0E07452C0E012D6
:0E1DC300386B1581158190008CE4F0A3F012AE
:091DD1003540E5829000ABF0748E
:081DDA0078C0E0744DC0E01276
:0E1DE200386B158115819000ABE0FBF5821285
:071DF000352E749EC0E07463
:0B1DF7004CC0E012386B158115819084
:0C1E020000ABE0FBBB521B74D8C0E074C6
:0B1E0E0053C0E012386B1581158112E3
:0B1E190006CF90008CE4F0A3F0807076
:0A1E2400BB531F74FDC0E07453C0EF
:0E1E2E00E012386B1581158175A800C2AFC295
:0A1E3C008C90008CE4F0A3F0804EBF
:0A1E4600BB541F7421C0E07454C0A7
:0E1E5000E012386B1581158175A883D2AFD2D0
:0A1E5E008C90008CE4F0A3F0802CBF
:0A1E6800BB4D1174F6C0E07452C0C7
:0A1E7200E012386B1581158180180D
:091E7C00745BC0E07451C0E01277
:0E1E8500386B1581158190008C7401F0E4A378
:011E9300F05E
:0E1E940090008CE0FBA3E0FCBB0106BC000349
:031EA200021D7EA0
:031EA5000219928D
:051EA800BA49028003AD
:031EAD0002230B02
:071EB00090008AE4F0A3F0AA
:091EB7007448C0E07454C0E0124C
:0B1EC000386B158115817470C0E07450
:0B1ECB0054C0E012386B1581158174C3
:081ED600ABC0E07454C0E0123F
:0B1EDE00386B1581158174ECC0E074B6
:0B1EE90054C0E012386B1581158174A5
:081EF40033C0E07455C0E01298
:0B1EFC00386B15811581746EC0E07416
:0B1F070055C0E012386B158115817485
:081F1200B4C0E07455C0E012F8
:0B1F1A00386B158115817432C0E07433
:0B1F250052C0E012386B15811581904E
:0C1F3000008CE4F0A3F0123540E5829034
:081F3C0000ACF07478C0E07401
:0B1F44004DC0E012386B158115819034
:0A1F4F0000ACE0FAF58212352E74A2
:081F59009EC0E0744CC0E012D0
:0E1F6100386B158115819000ACE0FABA57027A
:021F6F008003ED
:031F71000221FC4E
:091F740074F4C0E07455C0E012E1
:0A1F7D00386B15811581122B527488
:081F870025C0E07456C0E01211
:061F8F00386B158115817D
:0E1F95001234C7AB82AC83ADF09000AEEBF01F
:0B1FA300A3ECF0A3EDF0746AC0E07442
:0B1FAE0056C0E012386B1581158190C1
:0E1FB90000AEE0FBA3E0FCA3E0FD8B828C8376
:0A1FC7008DF012354A749EC0E074DC
:0B1FD1004CC0E012386B1581158190A8
:0E1FDC0000AEE0FBA3E0FCA3E0FD8B828C8353
:0E1FEA008DF0120618AB82AC83900092EBF0E3
:0A1FF800A3ECF0EB24DBF582EC34DF
:0A20020000F583E0FDBD0102801926
:0E200C00C3EB9401EC64809480400E74039B3F
:0B201A0074808CF063F08095F0501192
:092025007488C0E07456C0E0129A
:08202E00386B15811581800F4C
:0920360074B3C0E07456C0E0125E
:06203F00386B15811581CC
:0C204500900092E0FBA3E0FCEB24DBF534
:0C20510082EC3400F583E0FDBD010302C9
:02205D001F95CD
:0E205F00C3EB9401EC648094805003021F9543
:0E206D00C374039B74808CF063F08095F05078
:04207B0003021F95A8
:0E207F001234C7AB82AC83ADF09000B1EBF031
:0B208D00A3ECF0A3EDF074EAC0E074D7
:0B20980056C0E012386B1581158190D6
:0E20A30000B1E0FBA3E0FCA3E0FD8B828C8388
:0A20B1008DF012354A749EC0E074F1
:0B20BB004CC0E012386B1581158190BD
:0E20C60000B1E0FBA3E0FCA3E0FD8B828C8365
:0E20D4008DF0120618AB82AC83900094EBF0F6
:0E20E200A3ECF0C374019B74808CF063F0805B
:0A20F00095F0500F7408C0E074571B
:0920FA00C0E012386B158115815C
:0E210300900094E0FBA3E0FCC374019B748089
:0C2111008CF063F08095F0500302207FFA
:0B211D001211D6AB829000B6EBF090E0
:0D2128000094E0FCA3E0FD4C60030221B434
:0D213500900092E0FEA3E0FF8E828F8312E7
:0E2142003C1AAE82AF83A8F0F990019DEEF03A
:0E215000A3EFF0A3E8F0A3E9F0900000E4F59F
:0E215E00F07440123993AE82AF83A8F0F9C03E
:0E216C0006C007C000C00190000075F07F742F
:0E217A004312359EAE82AF83A8F0F9E58124B2
:0E218800FCF5818E828F8388F0E9123C27AE31
:0E21960082AF83900094EEF0A3EFF09000B6BD
:0E21A400E0F879005206E952079000B6EEF01E
:0221B200803477
:0E21B400900092E0FEA3E0FF8EF005F08006A2
:0621C200EC2CFCED33FDE6
:0E21C800D5F0F7900094ECF0A3EDF0900094A9
:0E21D600E0FCA3E0FD7E00EB4204EE4205902B
:0421E40000B6ECF065
:0B21E8009000B6E0FBF5821211899018
:0921F300008CE4F0A3F00222F7D5
:0A21FC00BA52497441C0E07457C0A4
:0E220600E012386B158115811211D6AB829053
:0C22140000ADEBF07C00C003C00474724D
:0C222000C0E07457C0E012386BE5812468
:0A222C00FCF581749EC0E0744CC004
:0E223600E012386B1581158190008CE4F0A346
:04224400F00222F78B
:0A224800BA441C7494C0E07457C03F
:0C225200E012386B158115811212089003
:09225E00008CE4F0A3F00222F769
:0A226700BA432574CBC0E07457C0E1
:0E227100E012386B15811581900214E4F0A381
:0E227F00F090000012149A90008CE4F0A3F08E
:02228D00806867
:0A228F00BA491B74F6C0E07457C092
:0C229900E012386B15811581122B529059
:0822A500008CE4F0A3F0804A74
:0A22AD00BA531B742CC0E07458C033
:0C22B700E012386B15811581122BB490D9
:0822C300008CE4F0A3F0802C74
:0A22CB00BA4D1174F6C0E07452C061
:0A22D500E012386B158115818018A6
:0922DF00745BC0E07451C0E01210
:0E22E800386B1581158190008C7401F0E4A311
:0122F600F0F7
:0E22F70090008CE0FAA3E0FBBA0106BB0003E6
:03230500021EB7FE
:0323080002199225
:09230B00745DC0E07458C0E012DA
:0E231400386B1581158190008A7401F0E4A3E6
:04232200F00219921A
:092326007475C0E07458C0E012A7
:06232F00386B15811581D9
:0E233500900088E4F0A3F01234C7AA82AB83B4
:0E234300ACF090005AEAF0A3EBF0A3ECF074BB
:08235100B1C0E07458C0E012B5
:0E235900386B1581158190005AE0FAA3E0FB65
:0D236700A3E0FC8A828B838CF012354A744F
:082374009EC0E0744CC0E012B1
:0E237C00386B1581158190005AE0FAA3E0FB42
:0E238A00A3E0FC8A828B838CF012008AAA8268
:0E239800AB8390007CEAF0A3EBF0C3EB648013
:0E23A6009488500B9000887401F0E4A3F0803E
:0123B4001612
:0C23B500900088E4F0A3F074C6C0E0744F
:0A23C10058C0E012386B1581158139
:0E23CB00900088E0FAA3E0FB4A70030223357D
:0923D9007407C0E07459C0E01261
:0623E200386B1581158126
:0E23E800900088E4F0A3F01234C7AA82AB8301
:0E23F600ACF090005DEAF0A3EBF0A3ECF07405
:082404003DC0E07459C0E01274
:0E240C00386B1581158190005DE0FAA3E0FBAE
:0D241A00A3E0FC8A828B838CF012354A749B
:082427009EC0E0744CC0E012FD
:0E242F00386B1581158190005DE0FAA3E0FB8B
:0E243D00A3E0FC8A828B838CF012031EAA821D
:0E244B00AB8390007EEAF0A3EBF0C3EB64805D
:0E2459009481500B9000887401F0E4A3F08091
:012467000F65
:09246800744FC0E07459C0E01289
:06247100386B1581158196
:0E247700900088E0FAA3E0FB4A70030223E81D
:0E24850090007CE0FAA3E0FB90007EE0FCA358
:0E249300E0FD900024ECF08A828B83120C6135
:0D24A10090007CE0FAA3E0FB8A828B83129E
:0E24AE000CE2AA82900066EAF0EA3395E0FBA9
:0A24BC00C002C003749DC0E0745913
:0C24C600C0E012386BE58124FCF5812297
:0924D2007475C0E07458C0E012FA
:0624DB00386B158115812C
:0E24E100900088E4F0A3F01234C7AA82AB8307
:0E24EF00ACF090005AEAF0A3EBF0A3ECF0740E
:0824FD00B1C0E07458C0E01208
:0E250500386B1581158190005AE0FAA3E0FBB7
:0D251300A3E0FC8A828B838CF012354A74A1
:082520009EC0E0744CC0E01203
:0E252800386B1581158190005AE0FAA3E0FB94
:0E253600A3E0FC8A828B838CF012008AAA82BA
:0E254400AB8390007CEAF0A3EBF0C3EB648065
:0E2552009488500B9000887401F0E4A3F08090
:012560001664
:0C256100900088E4F0A3F074C6C0E074A1
:0A256D0058C0E012386B158115818B
:0E257700900088E0FAA3E0FB4A70030224E122
:0D25850090007CE0FAA3E0FB8A828B8312B9
:0E2592000CE2AA82900066EAF0EA3395E0FBC4
:0E25A000C002C00390007CE0C0E0A3E0C0E0F9
:0A25AE0074C7C0E07459C0E07480E7
:0C25B800C0E0123D0DE58124F9F5812200
:0925C40074D4C0E07459C0E012A7
:0625CD00386B1581158139
:0E25D300900088E4F0A3F01234C7AA82AB8314
:0E25E100ACF0900060EAF0A3EBF0A3ECF07415
:0825EF00B1C0E07458C0E01215
:0E25F700386B15811581900060E0FAA3E0FBBF
:0D260500A3E0FC8A828B838CF012354A74AE
:082612009EC0E0744CC0E01210
:0E261A00386B15811581900060E0FAA3E0FB9B
:0E262800A3E0FC8A828B838CF012008AAA82C7
:0E263600AB83900080EAF0A3EBF0C3EB64806E
:0E2644009488500B9000887401F0E4A3F0809D
:012652001671
:0C265300900088E4F0A3F074C6C0E074AE
:0A265F0058C0E012386B1581158198
:0E266900900088E0FAA3E0FB4A70030225D33C
:092677007416C0E0745AC0E012B0
:06268000386B1581158185
:0E268600900088E4F0A3F01234C7AA82AB8360
:0E269400ACF0900063EAF0A3EBF0A3ECF0745E
:0826A200B1C0E07458C0E01261
:0E26AA00386B15811581900063E0FAA3E0FB08
:0D26B800A3E0FC8A828B838CF012354A74FB
:0826C5009EC0E0744CC0E0125D
:0E26CD00386B15811581900063E0FAA3E0FBE5
:0E26DB00A3E0FC8A828B838CF012008AAA8214
:0E26E900AB83900082EAF0A3EBF0C3EB6480B9
:0E26F7009488500B9000887401F0E4A3F080EA
:0127050016BD
:0C270600900088E4F0A3F074C6C0E074FA
:0A27120058C0E012386B15811581E4
:0E271C00900088E0FAA3E0FB4A7003022686D4
:0E272A00900080E0FAA3E0FB900082E0FCA3A8
:0E273800E0FDECC39AFAED9BFB0ABA00010B20
:0E274600900086EAF0A3EBF0C3E49A74808B57
:0C275400F063F08095F0503B7456C0E03C
:0C276000745AC0E012386B15811581908E
:0E276C000080E0FAA3E0FB900086E0FCA3E012
:0D277A00FD900029ECF0A3EDF090002B7411
:0A2787009EF0A37400F0A3E4F08AB2
:06279100828B83020DB2F1
:092797007482C0E0745AC0E01223
:0727A000386B158115812241
:0927A70074A6C0E0745AC0E012EF
:0627B000386B1581158154
:0A27B60090006E75F00012373E909F
:0D27C000006E75F000120618AA82AB83901F
:0E27CD00009AEAF0A3EBF0C374079A74808BB5
:0C27DB00F063F08095F0500F74D3C0E064
:0B27E700745AC0E012386B1581158198
:0E27F20090009AE0FAA3E0FBC374079A74808B
:0E2800008BF063F08095F040AD9000C0EAF0E0
:09280E007408C0E0745BC0E01224
:0A281700386B158115817A007B00F3
:0E282100C3EA9408EB648094804003022A020C
:0C282F00C002C003C002C0037442C0E03D
:0C283B00745BC0E012386BE58124FCF5F2
:0528470081D003D00266
:0E284C0090006E75F000C002C00312373ED03F
:0E285A0003D00290006E75F000C002C00312A1
:0E286800031EAC82AD83D003D00290009AEC28
:0E287600F0A3EDF0C3741F9C74808DF063F02E
:0C2884008095F05017C002C003745FC0C4
:0C289000E0745BC0E012386B158115810C
:04289C00D003D00293
:0E28A00090009AE0FCA3E0FDC3741F9C7480BE
:0C28AE008DF063F08095F04095EA24B8AE
:0B28BA00F582EB3400F583ECF0EA241B
:0A28C500C1FDEB3400FE8C82C0025E
:0E28CF00C003C005C0061205D6AC82D006D0EC
:0E28DD0005D003D0028D828E83ECF0C002C0C5
:0A28EB000374A9C0E0745BC0E012A2
:0E28F500386B15811581D003D0028A048B0543
:042903007E007F00D3
:0E290700C3EC9EED64808FF063F08095F0507D
:04291500030229F898
:0D291900C004C005C006C007C006C007749A
:08292600BAC0E0745BC0E012CE
:0E292E00386BE58124FCF581D007D006D0057A
:0A293C00D004EE24C1F8EF3400F9D6
:042946007A037B0095
:0E294A00C3EA9408EB6480948040030229F0F5
:0E295800C004C00588828983E0FC8AF005F087
:03296600EC800200
:02296900C31396
:0E296B00D5F0FB5401D005D004603AC002C084
:0E29790003C004C005C006C007C000C0017442
:0B298700FFC0E0E4C0E074C7C0E074D3
:0C2992005BC0E012386BE58124FCF5818D
:0E299E00D001D000D007D006D005D004D00361
:0429AC00D00280389D
:0E29B000C002C003C004C005C006C007C000BE
:0C29BE00C001745FC0E0E4C0E074C7C05A
:0C29CA00E0745BC0E012386BE58124FC77
:0E29D600F581D001D000D007D006D005D00486
:0429E400D003D0024A
:0529E8000ABA00010B1A
:0329ED0002294A72
:0529F0000EBE00010F06
:0329F500022907AD
:0A29F80074012CFAE43DFB022821D3
:092A02009000C0E0FA90004B7452
:0A2A0B00B8F0A37400F0A37400F00B
:052A15008A820217EFA8
:092A1A0074CAC0E0745BC0E01254
:062A2300386B15811581DE
:0A2A290090006E75F00012373E9029
:0D2A3300006E75F000120618AA82AB8390A9
:0E2A4000009AEAF0A3EBF0C374079A74808B3F
:0C2A4E00F063F08095F0500F74D3C0E0EE
:0B2A5A00745AC0E012386B1581158122
:0E2A650090009AE0FAA3E0FBC374079A748015
:0E2A73008BF063F08095F040AD9000C0EAF06B
:0E2A81009000487402F0900049EAF08A820248
:022A8F0017C06E
:0E2A9100E5829000E8F09000E8E0FA74015A47
:0D2A9F00FB9000DBF074025AFBC313FB90A8
:0D2AAC0000DCF074045AFB0303543FFB9060
:0D2AB90000DDF074085AFBC423541FFB908D
:0E2AC60000DEF074105AFBC4540FFB9000DFCA
:0E2AD400F074205AFBC4035407FB9000E0F09E
:0E2AE20074405AFB23235403FB9000E1F05391
:0E2AF0000280EA235401FA9000E2F09000DB2D
:0E2AFE00E0FA9000DCE025E0FB42029000DDF3
:0E2B0C00E0FB25E025E0FB42029000DEE0FB4E
:0E2B1A00C40354F8FB42029000DFE0FBC454F9
:0E2B2800F0FB42029000E0E0FBC42354E0FB0F
:0E2B360042029000E1E0FB030354C0FB4202A8
:0E2B44009000E2E0FB035480FB42028A8222F2
:042B52007A007B008A
:0D2B5600C3EA9408EB648094805052EA2496
:0A2B6300DBF582EB3400F583E0FCA3
:0C2B6D00BC011FC002C003C002C0037402
:082B790002C0E0745CC0E01230
:0E2B8100386BE58124FCF581D003D002801D65
:0C2B8F00C002C003C002C003741BC0E001
:0C2B9B00745CC0E012386BE58124FCF58E
:052BA70081D003D00203
:072BAC000ABA00A60B80A38A
:012BB30022FF
:0D2BB4001211D6E5829000B7F07A007B0088
:0E2BC100C3EA9408EB64809480503E9000B705
:092BCF00E0FC8AF005F0EC800244
:022BD800C31325
:0E2BDA00D5F0FB5401FC7D00C002C003C00416
:0B2BE800C005C002C0037435C0E074DB
:0C2BF3005CC0E012386BE58124FAF5812B
:0B2BFF00D003D0020ABA00BA0B80B766
:012C0A0022A7
:0E2C0B00C0E0C0F0C082C083C002C003C0049D
:0E2C1900C005C006C007C000C001C0D075D005
:0E2C270000758C4E758A00900096E0FAA3E0CE
:0D2C3500FB90009674012AF0E43BA3F090A0
:0E2C42000096E0FAA3E0FBBA020DBB000A12F6
:092C500006E4900096E4F0A3F004
:0E2C5900D0D0D001D000D007D006D005D004D6
:0D2C6700D003D002D083D082D0F0D0E03274
:0E2C7400C0E0C0F0C082C083C002C003C00434
:0E2C8200C005C006C007C000C001C0D075D09C
:0E2C900000900214E0FAA3E0FB90021474011D
:0E2C9E002AF0E43BA3F0900214E0FAA3E0FB5E
:0D2CAC00BA100ABB0007900214E4F0A3F078
:0D2CB900900214E0FAA3E0FB8A828B8312E4
:0E2CC600149AD0D0D001D000D007D006D0058F
:0E2CD400D004D003D002D083D082D0F0D0E064
:012CE20032BF
:0E2CE300C0E0C082C083C002C003C0D075D064
:0E2CF10000C2CAC2CF75CD0075CC009000E4C1
:0E2CFF00E0FAA3E0FB9000E474012AF0E43B4D
:0E2D0D00A3F0D2CAD0D0D003D002D083D0829F
:032D1B00D0E032D3
:0E2D1E00900151E4F0A3F09000E4E4F0A3F083
:0C2D2C009000E6E4F0A3F07451C0E074E5
:0B2D38005CC0E012386B1581158112A1
:0E2D430034C7AA82AB83ACF0C002C003C00448
:092D51007477C0E0745CC0E0126C
:0E2D5A00386B15811581D004D003D0028A8217
:0E2D68008B838CF0C002C003C00412354AD029
:0C2D760004D003D002C002C003C00474EB
:082D82009EC0E0744CC0E01299
:0E2D8A00386B15811581D004D003D0027D0076
:062D98007E007F007800C0
:0E2D9E00C005C006EF2AF9E83BFD8C068982CD
:0D2DAC008D838EF01245C6F9E4B9000104D4
:0B2DB900D006D005700C0DBD00010E0F
:072DC4000FBF00D60880D309
:0C2DCB00C002C003C004C005C006749A1A
:0C2DD700C0E0745CC0E012386BE58124A1
:0E2DE300FCF581D004D003D002900153E4F03F
:0E2DF100A3F0900088E4F0A3F0D2CA9000E9AD
:0A2DFF00E0F516A3E0F517A3E0F5D8
:082E0900187800E4F9F510F55A
:042E110011F512F5B0
:042E150013F514F5A8
:012E190015A3
:0E2E1A00C000C001900151E0F8A3E0F9E82AE1
:0D2E2800F8E93BF98C05888289838DF01252
:082E350045C6F8E4B8000104F1
:092E3D00D001D00060030231F75E
:0E2E4600900088E0FDA3E0FE4D60030231F72E
:0E2E5400900153E0FDA3E0FEC3ED9410EE6488
:0E2E6200809480503E8D0774802FFFF582C053
:0E2E700002C003C004C005C006C007C000C0F9
:0E2E7E0001121780D001D000D007D006D00579
:0E2E8C00D004D003D002900150EFF09001531B
:0B2E9A0074012DF0E43EA3F0022FC2F3
:0C2EA500C3ED9420EE648094805046AF92
:0C2EB1001274C02FFFF582C002C003C0E5
:0E2EBD0004C005C006C007C000C00112178087
:0E2ECB00D001D000D007D006D005D004D0032F
:0B2ED900D002900150EFF00512E4B5AC
:042EE40012020513BE
:0E2EE80090015374012DF0E43EA3F0022FC2BE
:0C2EF600C3ED9430EE648094805046AF31
:0C2F02001074902FFFF582C002C003C0C5
:0E2F0E0004C005C006C007C000C00112178035
:0E2F1C00D001D000D007D006D005D004D003DD
:0B2F2A00D002900150EFF00510E4B55C
:042F35001002051170
:0E2F390090015374012DF0E43EA3F0022FC26C
:0E2F4700C3ED9440EE6480948050428807747D
:0E2F5500D02FFFF582C002C003C004C005C02B
:0E2F630006C007C000C001121780D001D000C8
:0D2F7100D007D006D005D004D003D00290C8
:092F7E000150EFF008B800010950
:0D2F870090015374012DF0E43EA3F0802E64
:0C2F9400C002C003C004C000C00174C132
:0C2FA000C0E0745CC0E012386B158115B5
:0E2FAC0081D001D000D004D003D002C2CA9060
:082FBA0000887401F0E4A3F0AB
:0E2FC200900088E0FDA3E0FE4D60030230A108
:0E2FD000C000C001C002C003C004C000C001A8
:0E2FDE001215D0D001D000D004D003D0029044
:0C2FEC000151E0FDA3E0FEED2516FDEE16
:0A2FF8003517FEAF18C002C003C079
:0E30020004C005C006C007C0011217A1A882B5
:0E301000D001D007D006D005D004D003D002E6
:0E301E008D828E838FF0E8123852C002C003FC
:0D302C00C004C005C006C007C000C001748C
:0830390013C0E0745DC0E01259
:0E304100386B15811581D001D000D007D00664
:0E304F00D005D004D003D0028D828E838FF086
:0E305D001245C6FDF582C002C003C004C000CB
:0E306B00C00112352ED001D000D004D003D009
:0C30790002C002C003C004C000C001740B
:083085009EC0E0744CC0E01293
:0E308D00386B15811581D001D000D004D0031E
:06309B00D002D001D000BC
:0E30A100C000C001900151E0FDA3E0FEED2A49
:0D30AF00FFEE3BF88C018F82888389F012C0
:0630BC0045C6F519ED25E3
:0730C20016F8EE3517F9AF17
:0C30C90018888289838FF01245C6F8E554
:0830D50019B50004740180012B
:0130DD00E40E
:0930DE00D001D00070030231EDB5
:0A30E700C000C001ED24ECF51AEE64
:0530F1003400F51B9006
:0B30F6000150E0F953017F851A82852C
:0C3101001B83E9F0900150E0F97F00C052
:0E310D0002C003C004C005C006C000C001C05F
:0A311B0001C0077424C0E0745DC019
:0E312500E012386BE58124FCF581D001D0006A
:0E313300D006D005D004D003D002900150E0A9
:0E314100FF7800C002C003C004C005C006C075
:0C314F0000C001C007C000743DC0E07467
:0C315B005DC0E012386BE58124FCF581BA
:0E316700D001D000D006D005D004D003D00295
:0A317500851A82851B83E0FF7800B5
:0E317F00C002C003C004C005C006C000C001ED
:0A318D00C007C0007456C0E0745D76
:0E319700C0E012386BE58124FCF581D001D038
:0E31A50000D006D005D004D003D002C002C076
:0C31B30003C004C005C006C000C00174C9
:0831BF0074C0E0745DC0E01271
:0E31C700386B15811581D001D000D006D005DF
:0E31D500D004D003D00290015174012DF0E41B
:0A31E3003EA3F0D001D000022E1A26
:0A31ED00900151E4F0A3F0022E1A45
:0E31F700900088E0FDA3E0FE4D60030232B4BC
:073205000514E4B5140205F5
:01320C0015AC
:06320D00E514241EFDE59E
:05321300153401FE90DE
:0E32180000ECE0FF8D828E83F0C002C003C088
:0C32260004C005C006C000C001747EC0DA
:0C323200E0745DC0E012386B158115815E
:0E323E00D001D000D006D005D004D003D002BD
:0E324C008D828E83E0FD7E00C002C003C004B0
:0C325A00C000C001C005C00674D9C0E06F
:0C326600745DC0E07480C0E0123D0DE516
:0E3272008124FBF581D001D000D004D003D020
:0C32800002C002C003C004C000C001C0B6
:04328C0014C01574E1
:0832900044C0E0745EC0E012CE
:0E329800386BE58124FCF581D001D000D00414
:0E32A600D003D002900151E4F0A3F0022E1AE2
:0E32B400AACD8A037A00ACCC7D009000E6EC37
:0E32C2004AF0ED4BA3F09000E4E0C0E0A3E082
:0A32D000C0E0749BC0E0745EC0E033
:0E32DA0012386BE58124FCF5819000E6E0C01F
:0A32E800E0A3E0C0E074BDC0E07494
:0C32F2005EC0E012386BE58124FCF58121
:0E32FE009000E6E0FAA3E0FBE4FCFDC39AFAC0
:0E330C00E49BFB74019CFCE49DFD9000E6EA4E
:0E331A00F0A3EBF09000E6E0C0E0A3E0C0E01E
:0933280074BDC0E0745EC0E01247
:0E333100386BE58124FCF5819000E6E0FAA3FC
:0E333F00E0FB8A828B83123C5BAA82AB83ACDC
:0E334D00F0FD7448C0E074E1C0E0748AC0E096
:0E335B00743FC0E08A828B838CF0ED12364402
:0E336900AA82AB83ACF0FDE58124FCF5818ADD
:0E337700828B838CF0ED123C67E5828583F03B
:0E3385009000E6F0A3E5F0F09000E6E0FAA379
:0E339300E0FB90018C74E8F0A37403F08A82D2
:0E33A1008B831235A9E5828583F09000E6F05B
:0E33AF00A3E5F0F09000E6E0C0E0A3E0C0E08F
:0933BD0074D0C0E0745EC0E0129F
:0E33C600386BE58124FCF5819000E4E0FAA369
:0E33D400E0FB8A828B83123C5BAA82AB83AC47
:0E33E200F0FD7433C0E0C0E0748EC0E07442B1
:0E33F000C0E08A828B838CF0ED123644AA82F4
:0E33FE00AB83ACF0FDE58124FCF5818A828B67
:0D340C00838CF0ED123C67E5828583F09023
:0E34190000E4F0A3E5F0F09000E4E0FAA3E098
:0E342700FB9000E6E0FCA3E0FD9000E6EA2C3E
:0C343500F0EB3DA3F0C002C003749BC08C
:0C344100E0745EC0E012386BE58124FCF2
:0D344D00F5819000E6E0C0E0A3E0C0E0746F
:08345A00E9C0E0745EC0E0125D
:0E346200386BE58124FCF5819000E6E0FAA3CA
:0E347000E0FB90018C74E8F0A37403F08A82F4
:0E347E008B831235A9E5828583F09000E6F07D
:0E348C00A3E5F0F09000E6E0C0E0A3E0C0E0B1
:09349A007447C0E0745FC0E01249
:0934A300386BE58124FCF581225F
:0D34AC0085C9C975CD0075CC0043A8A322C9
:0E4C73000D0A2A2A2A2A2A2A2A2A2A2A2A2A24
:0E4C81002A2A2A2A57454C434F4D452A2A2AF3
:0E4C8F002A2A2A2A2A2A2A2A2A2A2A2A0D0A08
:014C9D000016
:034C9E000D0A00FC
:0E4CA1000D0A2A2A2A2A2A2A2A2A204D454E9E
:0D4CAF0055202A2A2A2A2A2A2A2A0D0A001C
:0E4CBC002A2A2A2A2A2A2A2A2053454C45430E
:0E4CCA005420274C2720464F52204C434420B4
:0E4CD8002020202A2A2A2A2A2A2A2A2A2A2AA0
:034CE6000D0A00B4
:0E4CE9002A2A2A2A2A2A2A2A2053454C4543E1
:0E4CF700542027452720464F52204545505255
:0E4D05004F4D202A2A2A2A2A2A2A2A2A2A2A16
:034D13000D0A0086
:0E4D16002A2A2A2A2A2A2A2A2053454C4543B3
:0E4D2400542027432720464F5220434C4F4334
:0E4D32004B2020202A2A2A2A2A2A2A2A2A2A24
:044D40002A0D0A002E
:0E4D44002A2A2A2A2A2A2A2A2053454C454385
:0E4D5200542027492720464F5220494F204524
:0E4D60005850414E4445522020202A2A2A2A2B
:0A4D6E002A2A2A2A2A2A2A0D0A00FE
:0E4D780054686520636F6D6D616E6420796F05
:0E4D86007520656E746572656420697309009E
:0E4D94002A2A2A2A2A2A2A2A2A2A2A2A204CAD
:0E4DA2004344204D454E55202A2A2A2A2A2A0B
:074DB0002A2A2A2A0D0A003D
:0E4DB7002A2A2A2A2A2A2A2A2A2053454C452B
:0E4DC50043542027432720666F722043475235
:0E4DD300414D2044554D50202A2A2A2A2A2AD2
:084DE1002A2A2A2A2A0D0A00E1
:0E4DE9002A2A2A2A2A2A2A2A2A2053454C45F9
:0E4DF70043542027442720666F722044445204
:0E4E0500414D2044554D50202A2A2A2A2A2A9F
:084E13002A2A2A2A2A0D0A00AE
:0E4E1B002A2A2A2A2A2A2A2A2A2053454C45C6
:0E4E290043542027502720666F72204C4344CC
:0E4E37002050555420535452494E4720202AF3
:0D4E45002A2A2A2A2A2A2A2A2A2A0D0A00A5
:0E4E52002A2A2A2A2A2A2A2A2A2053454C458F
:0E4E6000435420274C2720666F72204C434499
:0E4E6E0020434C45415220202A2A2A2A2A2A73
:084E7C002A2A2A2A2A0D0A0045
:0E4E84002A2A2A2A2A2A2A2A2A2053454C455D
:0E4E920043542027522720666F722043555349
:0E4EA000544F4D204348415241435445522047
:0E4EAE00435245415445202A2A2A2A2A2A2AFC
:074EBC002A2A2A2A0D0A0030
:0E4EC3002A2A2A2A2A2A2A2A2A2053454C451E
:0E4ED10043542027482720666F722043555314
:0E4EDF00544F4D204348415241435445522008
:0E4EED00444953504C4159202A2A2A2A2A2A85
:084EFB002A2A2A2A2A0D0A00C6
:0E4F03002A2A2A2A2A2A2A2A2A2053454C45DD
:0E4F110043542027462720666F72204C4344ED
:0E4F1F002046554E204C4F474F2044495350DA
:0E4F2D004C4159202A2A2A2A2A2A2A2A2A2ACC
:044F3B002A0D0A0031
:0E4F3F002A2A2A2A2A2A2A2A2A2053454C45A1
:0E4F4D0043542027532720666F72205354527E
:0E4F5B00494E472053454152434820202A2A00
:0C4F69002A2A2A2A2A2A2A2A2A0D0A00AB
:0E4F75002A2A2A2A2A2A2A2A2A2053454C456B
:0E4F8300435420274D2720666F72204D414970
:0E4F91004E204D454E5520202A2A2A2A2A2A33
:084F9F002A2A2A2A2A0D0A0021
:0E4FA7002A2A2A2A2A2A2A2A2A2A2A2A43477A
:0E4FB50052414D2044554D50204D4F44452053
:0E4FC300494E204C43442A2A2A2A2A2A2A2A06
:084FD1002A2A2A2A2A0D0A00EF
:0E4FD9002A2A2A2A2A2A2A2A2A2A2A2A44444A
:0E4FE70052414D2044554D50204D4F44452021
:0E4FF500494E204C43442A2A2A2A2A2A2A2AD4
:085003002A2A2A2A2A0D0A00BC
:0E500B002A2A2A2A2A2A2A2A2A2A2A2A4C4310
:0E501900442050555420535452494E472A2AE1
:0E5027002A2A2A2A2A2A2A2A2A2A2A0D0A0096
:08503500455344204C414200A8
:0E503D002A2A2A2A2A2A2A2A4261636B207410
:0E504B006F20204D61696E204D656E752A2A1A
:095059002A2A2A2A2A2A2A2A00FE
:0E5062002A2A2A2A2A2A2A2A2A2A2A2A434CB9
:0E507000454152204C4344204D4F44452049B9
:0E507E004E204C43442A2A2A2A2A2A2A2A2A69
:07508C002A2A2A2A0D0A005E
:0E5093002A2A2A2A2A2A2A2A20435553544F11
:0E50A1004D204348415241435445522044495A
:0E50AF0053504C4159204D4F4445202A2A2A87
:0750BD002A2A2A2A2A2A00F0
:0E50C4002A2A2A2A2A2A2A2A2A2A2A2A204383
:0E50D2005553544F4D204348415241435445DD
:0E50E0005220435245415445204D4F44452037
:0E50EE002A2A2A2A2A2A2A2A2A2A2A2A2A0D85
:0250FC000A00A8
:0E50FE002A2A2A2A2A2A2A2A2A2A2A2A204C40
:0E510C0043442046554E204C4F474F20444907
:0E511A0053504C4159202A2A2A2A2A2A2A2A8E
:085128002A2A2A2A2A0D0A0096
:0E5130002A2A2A2A2A2A2A2A2A2A2A2A205306
:0E513E005452494E4720534541524348202ABF
:0E514C002A2A2A2A2A2A2A2A2A2A2A2A0D0A46
:01515A000054
:0E515B00506C6561736520656E74657220612D
:0E5169002076616C696420636F6D6D616E6409
:035177000D0A001E
:0E517A002A2A2A2A2A2A2A2A2A204545505261
:0E5188004F4D204D454E55202A2A2A2A2A2A0C
:065196002A2A2A0D0A007E
:0E519C002A2A2A2A2A2A2A2A2A2053454C4542
:0E51AA0043542027572720666F722057524922
:0E51B80054452042595445202A2A2A2A2A2AE0
:0851C6002A2A2A2A2A0D0A00F8
:0E51CE002A2A2A2A2A2A2A2A2A2053454C4510
:0E51DC0043542027522720666F72205245410F
:0E51EA0044204259544520202A2A2A2A2A2AE3
:0851F8002A2A2A2A2A0D0A00C6
:0E5200002A2A2A2A2A2A2A2A2A2053454C45DD
:0E520E0043542027482720666F7220484558D9
:0E521C0044554D50202020202A2A2A2A2A2AD2
:08522A002A2A2A2A2A0D0A0093
:0E5232002A2A2A2A2A2A2A2A2053454C454392
:0E5240005420274D2720666F72204D41494EA5
:0E524E00204D454E55202A2A2A2A2A2A2A2A8D
:06525C002A2A2A0D0A00B7
:0E5262002A2A2A2A2A2A2A2A2A2A2A5752497E
:0E52700054452042595445204D4F4445204995
:0E527E004E20454550524F4D2A2A2A2A2A2AF0
:07528C002A2A2A2A0D0A005C
:0E5293002A2A2A2A2A2A2A2A2A2A2A52454167
:0E52A100442042595445204D4F444520494E6B
:0E52AF0020454550524F4D2A2A2A2A2A2A2AE3
:0652BD002A2A2A0D0A0056
:0E52C3002A2A2A2A2A2A2A2A2A2A2A4845582A
:0E52D10044554D502042595445204D4F444500
:0E52DF0020494E20454550524F4D2A2A2A2A7A
:0952ED002A2A2A2A2A2A0D0A00A5
:0E52F6002A2A2A2A2A2A2A2A4261636B207455
:0E5304006F204D61696E204D656E752A2A2A54
:085312002A2A2A2A2A2A2A006D
:0E531A002A2A2A2A2A2A2A2A2A20434C4F43CA
:0E5328004B204D454E55202A2A2A2A2A2A2A91
:055336002A2A0D0A0007
:0E533B002A2A2A2A2A2A2A2A2A2053454C45A1
:0E53490043542027522720666F7220434C4F9A
:0E535700434B205245534554202A2A2A2A2A25
:095365002A2A2A2A2A2A0D0A002C
:0E536E002A2A2A2A2A2A2A2A2A2053454C456E
:0E537C0043542027532720666F7220434C4F66
:0E538A00434B2053544F5020202A2A2A2A2A0F
:095398002A2A2A2A2A2A0D0A00F9
:0E53A1002A2A2A2A2A2A2A2A2A2053454C453B
:0E53AF0043542027542720666F7220434C4F32
:0E53BD00434B20524553544152542020202A85
:0D53CB002A2A2A2A2A2A2A2A2A2A0D0A001A
:0E53D8002A2A2A2A2A2A2A2A2A2A2A20434C4A
:0E53E6004F434B205245534554202A2A2A2A71
:0953F4002A2A2A2A2A2A0D0A009D
:0E53FD002A2A2A2A2A2A2A2A2A2A2A20434C25
:0E540B004F434B2053544F50202A2A2A2A2A5E
:085419002A2A2A2A2A0D0A00A2
:0E5421002A2A2A2A2A2A2A2A2A2A2A20434C00
:0E542F004F434B2052455354415254202A2AD9
:0B543D002A2A2A2A2A2A2A2A0D0A00FD
:0E5448002A2A2A2A2A2A2A2A2A20492F4F20D5
:0E545600455850414E444552204D454E55207C
:0C5464002A2A2A2A2A2A2A2A2A0D0A00AB
:0E5470002A2A2A2A2A2A2A2A2A2053454C456B
:0E547E0043542027572720666F7220492F4F76
:0E548C0020455850414E444552205752495435
:0E549A004520202A2A2A2A2A2A2A2A2A2A2AB1
:0354A8000D0A00EA
:0E54AB002A2A2A2A2A2A2A2A2A2053454C4530
:0E54B90043542027522720666F7220492F4F40
:0E54C70020455850414E444552205354415404
:0E54D5005553205245414420202A2A2A2A2AD3
:0954E3002A2A2A2A2A2A0D0A00AD
:0E54EC002A2A2A2A2A2A2A2A2A2053454C45EF
:0E54FA0043542027442720666F7220492F4F0D
:0E55080020504F52542050494E2044495245E5
:0E5516004354494F4E204348414E4745202004
:0E552400202A2A2A2A2A2A2A2A2A2A2A0D0A74
:015532000078
:0E5533002A2A2A2A2A2A2A2A2A2053454C45A7
:0E55410043542027432720666F7220492F4FC6
:0E554F0020434F554E5445522052455345546B
:0E555D002020202A2A2A2A2A2A2A2A2A2A2A12
:03556B000D0A0026
:0E556E002A2A2A2A2A2A2A2A2A2053454C456C
:0E557C0043542027492720666F7220492F4F85
:0E558A0020444953504C415920444952454356
:0E55980054494F4E2053544154555320202067
:0E55A6002A2A2A2A2A2A2A2A2A2A2A0D0A0012
:0E55B4002A2A2A2A2A2A2A2A2A2053454C4526
:0E55C20043542027532720666F7220492F4F35
:0E55D00020444953504C41592044415441203D
:0E55DE0053544154555320202A2A2A2A2A2A9F
:0855EC002A2A2A2A2A0D0A00CE
:0E55F4002A2A2A2A2A2A2A2A2A2A2A20492F43
:0E5602004F20455850414E44455220575249C2
:0E56100054452042595445202A2A2A2A2A2A83
:07561E002A2A2A2A0D0A00C6
:0E562500456E7465722061206F757470757427
:0E56330020706F72742070696E206E756D624B
:0E5641006572206265747765656E2031207495
:0E564F006F203320796F752077616E742074A0
:0D565D006F20777269746520746F0D0A006C
:0E566A005468652070696E20796F7520686144
:0E56780076652073656C6563746564206973E4
:025686003A00E8
:0E568800506C6561736520456E74657220611B
:0E569600204F75747075742050696E20626527
:0E56A400747765656E203120746F20330D0A17
:0156B20000F7
:0E56B3000A0A0D092053656C6563742061209E
:0E56C10062697420746F2077726974652074BA
:0E56CF006F207468652070696E3A2020302EBE
:0D56DD0020616E642020312E200D0A09008E
:0E56EA005468652062697420796F75206861CC
:0E56F80076652073656C656374656420697364
:025706003A0067
:0E5708000A0A0D202A2D4552524F522D2A0A10
:0E5716000D0920456E74657220612076616C6D
:0E5724006964206E756D62657220626574772F
:0E57320065656E2030206F7220313A200D0A1E
:015740000068
:0E5741002A2A2A2A2A2A2A2A2A2A2A20492FF4
:0E574F004F20455850414E444552205245418E
:0E575D0044204259544520202A2A2A2A2A2A6A
:07576B002A2A2A2A0D0A0078
:0E57720054686520737461747573206F66202F
:0E578000492F4F20657870616E646572206954
:06578E00732025582000E5
:0E5794002A2A2A2A2A2A2A2A2A2A2A20492FA1
:0E57A2004F20504F52542050494E204449523F
:0E57B000454354494F4E204348414E47452043
:0D57BE002A2A2A2A2A2A2A2A2A2A0D0A0023
:0E57CB002A2A2A2A2A2A2A2A2A2A2A20492F6A
:0E57D9004F20434F554E5445522052455345E4
:0E57E70054202A2A2A2A2A2A2A2A2A2A0D0A85
:0157F50000B3
:0E57F6002A2A2A2A2A2A2A2A2A2A2A20492F3F
:0E5804004F20444953504C41592044495245CD
:0E5812004354494F4E20535441545553202ABD
:0C5820002A2A2A2A2A2A2A2A2A0D0A00EB
:0E582C002A2A2A2A2A2A2A2A2A2A2A20492F08
:0E583A004F20444953504C41592044415441A1
:0E58480020535441545553202A2A2A2A2A2A32
:075856002A2A2A2A0D0A008C
:0E585D00456E74657220612076616C6964206E
:0A586B00636F6D6D616E640D0A003D
:0E5875000A0A0D20456E74657220416464724B
:0E58830065737320696E2048657820696E2079
:0E58910048484820666F726D6174206265742D
:0E589F007765656E2030303020746F203746FC
:0458AD00460D0A009A
:0E58B1004164647265737320456E74657265A0
:0758BF00642069733A200028
:0E58C6000A0A0D202A2D4552524F522D2A0952
:0E58D40020506C6561736520456E746572200E
:0E58E20076616C6964204164647265737320A2
:0E58F0006265747765656E2030303020616E21
:0958FE0064203746460D0A200023
:0E5907000A0A0D20456E7465722044617461B9
:0E59150020696E2048657820696E2048482081
:0E592300666F726D6174206265747765656EE3
:0C59310020303020746F2046463A2000E1
:0E593D004461746120456E7465726564206972
:04594B00733A20008B
:0E594F000A0A0D202A2D4552524F522D2A09C8
:0E595D0020506C6561736520456E7465722084
:0E596B0076616C6964206461746120696E204D
:0E59790048657820696E20484820666F726D80
:0E5987006174206265747765656E2030302093
:08599500746F2046460D0A0064
:0E599D00546865206279746520696E20746814
:0E59AB006520737065636966696564206164D8
:0E59B90064726573732069732025780D0A00EF
:0D59C700253033583A20253032580D0A00A3
:0E59D4000A0A0D20456E7465722073746172AC
:0E59E20074204164647265737320696E2048FE
:0E59F000657820696E2048484820666F726D09
:0E59FE006174206265747765656E203030300C
:0A5A0C0020746F203746460D0A0093
:0E5A16000A0A0D20456E74657220656E6420CC
:0E5A24004164647265737320696E2048657872
:0E5A320020696E2048484820666F726D6174CE
:0E5A4000206265747765656E2030303020740A
:085A4E006F203746460D0A00E7
:0E5A56000D0A2A2A2A2A2A2A2A2A2A2A2A2A33
:0E5A640053657175656E7469616C20526561E1
:0E5A7200642A2A2A2A2A2A2A2A2A2A2A2A0DBD
:025A80000A001A
:0E5A8200506C6561736520456E74657220611D
:0E5A90002048696768657220456E6420416495
:085A9E0064726573730D0A00C8
:0E5AA6000A0A0D092053656C6563742043687D
:0E5AB4006172616374657220636F64652062C5
:0E5AC20065747765656E203020746F20373A6A
:035AD000200900AA
:0E5AD3000A0A0D202A2D4552524F522D2A0A42
:0E5AE1000D0920456E74657220612076616C9F
:0E5AEF006964206E756D626572206265747761
:0B5AFD0065656E203020746F203700BC
:0E5B08000A0A0D0920456E74657220706978D6
:0E5B1600656C206D617020696E204845582036
:0E5B2400696E20484820666F726D61742066BD
:0E5B3200726F6D20303020746F2031463A20A3
:025B400009005A
:0E5B42000A0D09204461746120696E20726FA3
:0E5B500077206E756D6265722025643A20091B
:015B5E000046
:0E5B5F000A0A0D202A2D4552524F522D2A0AB5
:0E5B6D000D0920456E74657220612076616C12
:0E5B7B00696420484558206E756D6265722081
:0E5B89006265747765656E20303020746F2081
:0E5B9700314620696E20484820666F726D61AD
:045BA500743A090045
:0E5BA9000A0D09092020202020200931323366
:035BB70034350082
:0D5BBA000A0D0909524F572025643A0900D1
:035BC70025630053
:0E5BCA000A0A0D092053656C65637420436858
:0E5BD8006172616374657220636F64652062A0
:0E5BE60065747765656E203020746F2037205F
:0E5BF400746F20646973706C61793A20090047
:0E5C02005025642070696E206973206120694E
:0B5C10006E7075742070696E0D0A0044
:0E5C1B005025642070696E2069732061206F2F
:0C5C290075747075742070696E0D0A00AF
:0E5C35004461746120617420506F72742050BD
:0E5C4300696E2025642069732025780D0A0003
:0E5C5100456E74657220746865207374726904
:0E5C5F006E6720796F752077616E7420746F08
:0A5C6D00207365617263680D0A0080
:0E5C770054686520737472696E6720796F75CA
:0E5C85002077616E7420746F20736561726306
:075C9300682069733A20004C
:0E5C9A004C656E677468206F66207468652024
:0E5CA800737472696E6720746F207365617289
:0B5CB60063682069732025640D0A005C
:0E5CC1002A2A2A2A2A2A2A2A2A2A2A2A2A2A89
:0E5CCF002A2A2A2A2A2A2A2A2A2A2A2A2A2A7B
:0E5CDD002A2A2A2A536561726368206973209F
:0E5CEB0066696E69736865642A2A2A2A2A2A65
:0E5CF9002A2A2A2A2A2A2A2A2A2A2A2A2A2A51
:0C5D07002A2A2A2A2A2A2A2A2A0D0A00FF
:0E5D1300526561642063686172616374657239
:035D21003A200025
:0E5D24004164647265737320636170747572FC
:0B5D320065642069732025780D0A00CD
:0E5D3D004164647265737320636170747572E3
:0B5D4B0065642069732025640D0A00C8
:0E5D560074656D702041646472657373206320
:0E5D6400617074757265642069732025780D76
:025D72000A0025
:0A5D74004D4154434845440D0A0018
:0E5D7E002A2A2A2A2A2A2A2A2A2A2A2A2A2ACB
:0E5D8C002A2A2A2A2A2A2A2A2A2A2A2A2A2ABD
:0E5D9A002A2A2A2A2A2A2A2A2A2A2A2A2A2AAF
:0E5DA800466F756E64207468652074657874AB
:0E5DB6002A2A2A2A2A2A2A2A2A2A2A2A2A2A93
:0E5DC4002A2A2A2A2A2A2A2A2A2A2A2A2A2A85
:075DD2002A2A2A2A0D0A000B
:0E5DD9002A2A2A2A2A2A2A2A2A2A2A2A2A2A70
:0E5DE7002A2A2A2A2A2A2A2A2A2A2A2A2A2A62
:0E5DF5002A2A2A2A2A2A2A2A2A2A2A2A2A2A54
:0E5E030041646472657373206F662074686575
:0E5E110020737472696E672069733A20253021
:0E5E1F0032582A2A2A2A2A2A2A2A2A2A2A2AF3
:0E5E2D002A2A2A2A2A2A2A2A2A2A2A2A2A2A1B
:095E3B002A2A2A2A2A2A0D0A004B
:0E5E44002A2A2A2A2A2A2A2A2A2A2A2A2A2A04
:0E5E52002A2A2A2A2A2A2A2A2A2A2A2A2A2AF6
:0E5E60002A2A2A2A2A2A2A2A2A2A5365617205
:0E5E6E00636820636F756E742069732025646D
:0E5E7C002A2A2A2A2A2A2A2A2A2A2A2A2A2ACC
:0E5E8A002A2A2A2A2A2A2A2A2A2A2A2A3838A2
:035E98000D0A00F0
:0E5E9B004E756D626572206F662074696D65CC
:0E5EA9007320696E746572727570742069736F
:065EB7002025640D0A0025
:0E5EBD006C6F61642076616C756520697320DE
:055ECB0025780D0A001E
:0E5ED00074696D652076616C756520697320BC
:0B5EDE0075732069732025640D0A0015
:0E5EE9002A2A2A2A2A2A2A2A2A2A2A2A2A2A5F
:0E5EF7002A2A2A2A2A2A2A2A2A2A2A2A2A2A51
:0E5F05002A2A2A746F74616C2074696D6520FD
:0E5F130076616C7565206973206D732069736B
:0E5F21002025646D732A2A2A2A2A2A2A2A2A6F
:0E5F2F002A2A2A2A2A2A2A2A2A2A2A2A2A2A18
:0A5F3D002A2A2A2A2A2A2A0D0A001D
:0E5F47002A2A2A2A2A2A2A2A2A2A2A2A2A2A00
:0E5F55002A2A2A2A2A2A2A2A2A2A2A2A2A2AF2
:0E5F63002A2A2A746F74616C2074696D65209F
:0E5F710076616C75652069732073206973205A
:0E5F7F002564732A2A2A2A2A2A2A2A2A2A2A4A
:0E5F8D002A2A2A2A2A2A2A2A2A2A2A2A2A2ABA
:0C5F9B002A2A2A2A2A2A2A2A2A0D0A0069
:045FA7003031320063
:0E5FAB00454D42454444454420535953544506
:0E5FB9004D2044455349474E204C4142203470
:0E5FC70020524551554952454420454C454D08
:055FD500454E5453008D
:03605D00303132AD
:0E606000454D42454444454420535953544550
:0E606E004D2044455349474E204C41422034BA
:0E607C0020524551554952454420454C454D52
:08608A00454E545300000000D4
:01609200000D
:0260930000000B
:02609500000009
:0E34B900758920758DFA759850D28ED29922A1
:0D34C700123540E582900155F07A007B003F
:0A34D400900155E0FCBC0D028029B8
:0534DE00BC0002802487
:0A34E300EA2456F582EB3401F5836C
:0734ED00ECF00ABA00010B2C
:0E34F400C002C003123540E582D003D0029022
:053502000155F080CD31
:0A350700EA2456F582EB3401F58347
:0A351100E4F0EA2456FAEB3401FB63
:0D351B007C008A828B838CF0E41238529081
:06352800015675F00022BF
:06352E00E582900188F027
:0C3534003099FD900188E0F599C29922C1
:0535400010980280FB61
:05354500AA998A822210
:0E354A00AAF0AB83E582900189F0A3EBF0A319
:0E355800EAF0900189E0FAA3E0FBA3E0FC7D1D
:03356600007E00E4
:0E356900ED2AFFEE3BF88C018F82888389F0FB
:0E3577001245C6FF60208F82C002C003C00450
:0E358500C005C00612352ED006D005D004D0E9
:0A35930003D0020DBD00CF0E80CC66
:01359D00220B
:0B359E00A8811818C6B2E7C6023BC1A6
:0E35A900AA83E58290018EF0A3EAF0900190D3
:0E35B700E4F0A3F090018CE0FAA3E0FB7C109E
:0C35C50090018EE0FDA3E0FE339200EECA
:0E35D100CD25E0CD33FE90018EEDF0A3EEF09F
:0E35DF00900190E0FDA3E0FECD25E0CD33FE8F
:0C35ED00900190EDF0A3EEF03000129081
:0E35F9000190E0FDA3E0FE90019074014DF002
:03360700A3EEF03F
:0E360A00900190E0FDA3E0FEC3ED9AEE9B4020
:0D3618001D900190EDC39AF0EE9BA3F09081
:0E362500018EE0FDA3E0FE90018E74014DF0D9
:03363300A3EEF013
:0E363600DC8D90018EE0FAA3E08A82F58322FB
:063644001236E7BC000392
:03364A00023C93AC
:08364D00EF60FA30D502B2D1A2
:08365500E583B4FF03023CA968
:08365D00E582B4FF03023CA961
:0B366500258340072482400B023C93A9
:083670002483145003023CA95D
:0E367800F582EA8DF0A4A8F0EA8EF0A428F8FE
:0E368600E435F0F9EB8DF0A428E935F0F9E415
:0E36940033CA8FF0A429F9EA35F0FAEBF88E6C
:0E36A200F0A429F9EA35F0FAE433FBEC8DF0E0
:0E36B000A429F9EA35F0FAE43BFBE88FF0A418
:0E36BE002AFAEB35F0FBE433CCFD8EF0A42AA3
:0E36CC00FAEB35F0FBE43CFCED8FF0A42BFB99
:0A36DA00EC35F0FC20E70312371571
:0336E400023C7233
:0D36E700AA82AB83A2F73392D16002D2F722
:0E36F400F582ACF0E58124F9F8E6FD08E6FE6B
:0E3702000886F008E6A2F73392D56002D2F7EF
:05371000F583AFF0227B
:06005D00E478FFF6D8FD77
:02371500780436
:0E371700EC700DC9CACBFCE58224F8F582D80F
:02372500F1228F
:02372700782008
:0E37290020E7111582C3E933F9EA33FAEB33D6
:06373700FBEC33FCD8ECB2
:01373D002269
:08003B00793AE94400601B7AE8
:050043000190605D78F2
:03004800DC75A0C4
:0A004B0001E493F2A308B8000205D7
:08005500A0D9F4DAF275A0FF56
:0E373E00AAF0AB83E582900192F0A3EBF0A31A
:0E374C00EAF0900192E0FAA3E0FBA3E0FC900B
:0E375A000195EAF0A3EBF0A3ECF0900198E4E7
:03376800F0A3F0DB
:0A376B00123540AA82BA0802800D50
:05377500BA0A028067A2
:05377A00BA0D0280629F
:03377F00023814F9
:0E378200900198E0FBA3E0FC4B60DE7582082E
:0E379000C003C00412352ED004D00375822071
:0E379E00C003C00412352ED004D0037582087B
:0E37AC00C003C00412352ED004D00390019546
:0D37BA00E0FDA3E0FEA3E0FF1DBDFF011E2A
:0E37C700900195EDF0A3EEF0A3EFF01BBBFF19
:0237D500011CD5
:0A37D700900198EBF0A3ECF0808A5B
:0D37E10075820D12352E75820A12352E905C
:0E37EE000195E0FBA3E0FCA3E0FD8B828C8341
:0E37FC008DF0E4123852900192E0FBA3E0FC45
:0A380A00A3E0FD8B828C838DF02279
:0E381400900195E0FBA3E0FCA3E0FD8B828C0D
:0E382200838DF0EA12385290019574012BF05C
:0E383000E43CA3F0A3EDF0900198E0FBA3E0D0
:0E383E00FC90019874012BF0E43CA3F08A8208
:06384C0012352E02376B5D
:0E38520020F71030F6118883A88220F507F6C3
:05386000A88375830040
:013865002240
:03386600F280F7F6
:02386900F0224B
:05386B00C0228581224E
:0B387000E52224FDF8868318868218EC
:0E387B00E493A324DB600C2425600512395869
:0238890080F0CD
:03388B000239708F
:09388E00D2D5E493A3C083C082EB
:03389700B47314F3
:09389A0086F01886831886821856
:0B38A3001245C66053A312395880F58F
:0A38AE00B46307E61812395880438E
:0E38B800B46417E630E74618E6F42401F6087B
:0C38C600E6F43400F6742D1239588033FB
:0A38D200B4782D868318868218E46E
:0B38DC00123949E583123948E58312D8
:0A38E7003949E582123948E58212E2
:0A38F100394930D5057430123958FA
:0738FB00D082D08302387B6C
:03390200B475F6A3
:06390500E6FA18E6F918CD
:0D390B007C107D27123933FF7CE87D03120C
:0E3918003933C4F5837C647D00123933428359
:0D392600E975F00A84C445F0F582EF80A930
:023933007B0017
:0E3935000BC3E99CF9EA9DFA50F61BE92CF948
:05394300EA3DFAEB2251
:01394800C4BA
:07394900540F700320D51F8D
:08395000C2D52490D43440D408
:0E395800C083C082C0F0F582E8C0E012352EB8
:09396600D0E0F8D0F0D082D0834B
:01396F002235
:03397000D0222240
:0E397300AA83AB828BF090019BE0A4F8A9F030
:0E3981008AF0E0A429F98BF0A3E0A429F583D5
:04398F0088822222E6
:0E399300AA82AB83ACF0FD9001A1EAF0A3EB99
:0E39A100F0A3ECF0A3EDF090019DE0FAA3E09E
:0E39AF00FBA3E0FCA3E0FDEA4B4C4D70099039
:0839BD00000075F080743F2248
:0E39C500C002C003C004C005E4C0E0C0E0744E
:0E39D30080C0E0743FC0E08A828B838CF0EDF0
:0E39E1001247C2AE82E58124FCF581D005D0EC
:0E39EF0004D003D002EE60159001A1E0FEA30B
:0E39FD00E0FFA3E0F8A3E0F98E828F8388F04C
:013A0B002298
:093A0C009001A1E0F51CA3E0F516
:083A15001DA3E0F51EA3E0F57E
:0C3A1D001FC002C003C004C005E4C0E0EC
:0A3A2900C0E0C0E0C0E0851C82850B
:063A33001D83851EF0E575
:0C3A39001F1247D3AE82E58124FCF5810A
:0E3A4500D005D004D003D002EE700790000030
:043A5300E4F5F02284
:073A5700851C82851D83859B
:0A3A5E001EF0E51FC002C003C00403
:0E3A6800C005124622AE82AF83A8F0F9D00549
:0E3A7600D004D003D002C002C003C004C005BB
:0E3A84008E828F8388F0E9123644AA82AB83CB
:0E3A9200ACF0FDE58124FCF5818A828B838CEB
:053AA000F0ED024803F7
:0E3AA500AA83E5829001A7F0A3EAF09001A7A2
:0E3AB300E0FAA3E0FB30E709C3E49AFCE49BD1
:033AC100FD800481
:043AC4008A048B05E0
:0E3AC8008C028D039001A5E0FCA3E0FD30E729
:0A3AD60009C3E49CFEE49DFF800498
:043AE0008C068D07BC
:0D3AE4009001A9EEF0A3EFF08A828B83120F
:0E3AF1003B13AA82AB839001A7E0FCA3E0FD8B
:0E3AFF0030E70CC3E49AFCE49BFD8C828D83BF
:013B0D002295
:053B0E008A828B832276
:0E3B1300AA83E5829001ABF0A3EAF09001AD29
:0C3B2100E4F09001ABE0FAA3E0FB7C00B4
:0E3B2D009001A9E0FDA3E0FE235401FF7037D4
:0E3B3B00EECD25E0CD33FE9001A9EDF0A3EE16
:0E3B4900F09001A9E0FDA3E0FEC3EA9DEB9E13
:0E3B57005011EEC313CD13CDFE9001A9EDF079
:053B6500A3EEF0800852
:083B6A000C9001ADECF080BBF2
:053B72009001ADE0FA36
:0E3B77009001ABE0FBA3E0FC9001A9E0FDA3F0
:0E3B8500E0FEC3EB9DEC9E400B9001ABEBC34A
:063B93009DF0EC9EA3F082
:0E3B99009001A9E0FBA3E0FCC313CB13CBFC0F
:0E3BA7009001A9EBF0A3ECF08A031AEB70C2B8
:0C3BB5009001ABE0FAA3E08A82F58322C5
:033BC1001236E7D2
:093BC4007900E583B58202800D51
:053BCD005003124559F0
:083BD200E583C395821247242C
:083BDA00E5D0C465D020E1171D
:0E3BE200EA2DFAEB3EFBEC3FFC500974011299
:063BF0004724EC4480FCB8
